{
	"contracts/tugas-1.sol": {
		"DataStore": {
			"abi": [
				{
					"inputs": [
						{
							"internalType": "string",
							"name": "nama",
							"type": "string"
						},
						{
							"internalType": "string",
							"name": "alamat",
							"type": "string"
						},
						{
							"internalType": "uint16",
							"name": "tanggal_lahir",
							"type": "uint16"
						},
						{
							"internalType": "string",
							"name": "jenis_kelamin",
							"type": "string"
						}
					],
					"name": "storeData",
					"outputs": [],
					"stateMutability": "nonpayable",
					"type": "function"
				}
			],
			"devdoc": {
				"kind": "dev",
				"methods": {},
				"version": 1
			},
			"evm": {
				"assembly": "    /* \"contracts/tugas-1.sol\":60:453  contract DataStore {... */\n  mstore(0x40, 0x80)\n  callvalue\n  dup1\n  iszero\n  tag_1\n  jumpi\n  revert(0x00, 0x00)\ntag_1:\n  pop\n  dataSize(sub_0)\n  dup1\n  dataOffset(sub_0)\n  0x00\n  codecopy\n  0x00\n  return\nstop\n\nsub_0: assembly {\n        /* \"contracts/tugas-1.sol\":60:453  contract DataStore {... */\n      mstore(0x40, 0x80)\n      callvalue\n      dup1\n      iszero\n      tag_1\n      jumpi\n      revert(0x00, 0x00)\n    tag_1:\n      pop\n      jumpi(tag_2, lt(calldatasize, 0x04))\n      shr(0xe0, calldataload(0x00))\n      dup1\n      0xea4c864a\n      eq\n      tag_3\n      jumpi\n    tag_2:\n      revert(0x00, 0x00)\n        /* \"contracts/tugas-1.sol\":248:450  function storeData (string memory nama, string memory alamat, uint16 tanggal_lahir, string memory jenis_kelamin) public {... */\n    tag_3:\n      tag_4\n      0x04\n      dup1\n      calldatasize\n      sub\n      dup2\n      add\n      swap1\n      tag_5\n      swap2\n      swap1\n      tag_6\n      jump\t// in\n    tag_5:\n      tag_7\n      jump\t// in\n    tag_4:\n      stop\n    tag_7:\n        /* \"contracts/tugas-1.sol\":379:385  person */\n      0x00\n        /* \"contracts/tugas-1.sol\":391:441  Person(nama, alamat, tanggal_lahir, jenis_kelamin) */\n      mload(0x40)\n      dup1\n      0x80\n      add\n      0x40\n      mstore\n      dup1\n        /* \"contracts/tugas-1.sol\":398:402  nama */\n      dup7\n        /* \"contracts/tugas-1.sol\":391:441  Person(nama, alamat, tanggal_lahir, jenis_kelamin) */\n      dup2\n      mstore\n      0x20\n      add\n        /* \"contracts/tugas-1.sol\":404:410  alamat */\n      dup6\n        /* \"contracts/tugas-1.sol\":391:441  Person(nama, alamat, tanggal_lahir, jenis_kelamin) */\n      dup2\n      mstore\n      0x20\n      add\n        /* \"contracts/tugas-1.sol\":412:425  tanggal_lahir */\n      dup5\n        /* \"contracts/tugas-1.sol\":391:441  Person(nama, alamat, tanggal_lahir, jenis_kelamin) */\n      0xffff\n      and\n      dup2\n      mstore\n      0x20\n      add\n        /* \"contracts/tugas-1.sol\":427:440  jenis_kelamin */\n      dup4\n        /* \"contracts/tugas-1.sol\":391:441  Person(nama, alamat, tanggal_lahir, jenis_kelamin) */\n      dup2\n      mstore\n      pop\n        /* \"contracts/tugas-1.sol\":379:442  person.push(Person(nama, alamat, tanggal_lahir, jenis_kelamin)) */\n      swap1\n      dup1\n      0x01\n      dup2\n      sload\n      add\n      dup1\n      dup3\n      sstore\n      dup1\n      swap2\n      pop\n      pop\n      0x01\n      swap1\n      sub\n      swap1\n      0x00\n      mstore\n      keccak256(0x00, 0x20)\n      swap1\n      0x04\n      mul\n      add\n      0x00\n      swap1\n      swap2\n      swap1\n      swap2\n      swap1\n      swap2\n      pop\n      0x00\n      dup3\n      add\n      mload\n      dup2\n      0x00\n      add\n      swap1\n      dup2\n      tag_10\n      swap2\n      swap1\n      tag_11\n      jump\t// in\n    tag_10:\n      pop\n      0x20\n      dup3\n      add\n      mload\n      dup2\n      0x01\n      add\n      swap1\n      dup2\n      tag_12\n      swap2\n      swap1\n      tag_11\n      jump\t// in\n    tag_12:\n      pop\n      0x40\n      dup3\n      add\n      mload\n      dup2\n      0x02\n      add\n      exp(0x0100, 0x00)\n      dup2\n      sload\n      dup2\n      0xffff\n      mul\n      not\n      and\n      swap1\n      dup4\n      0xffff\n      and\n      mul\n      or\n      swap1\n      sstore\n      pop\n      0x60\n      dup3\n      add\n      mload\n      dup2\n      0x03\n      add\n      swap1\n      dup2\n      tag_13\n      swap2\n      swap1\n      tag_11\n      jump\t// in\n    tag_13:\n      pop\n      pop\n      pop\n        /* \"contracts/tugas-1.sol\":248:450  function storeData (string memory nama, string memory alamat, uint16 tanggal_lahir, string memory jenis_kelamin) public {... */\n      pop\n      pop\n      pop\n      pop\n      jump\t// out\n        /* \"#utility.yul\":7:82   */\n    tag_14:\n        /* \"#utility.yul\":40:46   */\n      0x00\n        /* \"#utility.yul\":73:75   */\n      0x40\n        /* \"#utility.yul\":67:76   */\n      mload\n        /* \"#utility.yul\":57:76   */\n      swap1\n      pop\n        /* \"#utility.yul\":7:82   */\n      swap1\n      jump\t// out\n        /* \"#utility.yul\":88:205   */\n    tag_15:\n        /* \"#utility.yul\":197:198   */\n      0x00\n        /* \"#utility.yul\":194:195   */\n      0x00\n        /* \"#utility.yul\":187:199   */\n      revert\n        /* \"#utility.yul\":211:328   */\n    tag_16:\n        /* \"#utility.yul\":320:321   */\n      0x00\n        /* \"#utility.yul\":317:318   */\n      0x00\n        /* \"#utility.yul\":310:322   */\n      revert\n        /* \"#utility.yul\":334:451   */\n    tag_17:\n        /* \"#utility.yul\":443:444   */\n      0x00\n        /* \"#utility.yul\":440:441   */\n      0x00\n        /* \"#utility.yul\":433:445   */\n      revert\n        /* \"#utility.yul\":457:574   */\n    tag_18:\n        /* \"#utility.yul\":566:567   */\n      0x00\n        /* \"#utility.yul\":563:564   */\n      0x00\n        /* \"#utility.yul\":556:568   */\n      revert\n        /* \"#utility.yul\":580:682   */\n    tag_19:\n        /* \"#utility.yul\":621:627   */\n      0x00\n        /* \"#utility.yul\":672:674   */\n      0x1f\n        /* \"#utility.yul\":668:675   */\n      not\n        /* \"#utility.yul\":663:665   */\n      0x1f\n        /* \"#utility.yul\":656:661   */\n      dup4\n        /* \"#utility.yul\":652:666   */\n      add\n        /* \"#utility.yul\":648:676   */\n      and\n        /* \"#utility.yul\":638:676   */\n      swap1\n      pop\n        /* \"#utility.yul\":580:682   */\n      swap2\n      swap1\n      pop\n      jump\t// out\n        /* \"#utility.yul\":688:868   */\n    tag_20:\n        /* \"#utility.yul\":736:813   */\n      0x4e487b7100000000000000000000000000000000000000000000000000000000\n        /* \"#utility.yul\":733:734   */\n      0x00\n        /* \"#utility.yul\":726:814   */\n      mstore\n        /* \"#utility.yul\":833:837   */\n      0x41\n        /* \"#utility.yul\":830:831   */\n      0x04\n        /* \"#utility.yul\":823:838   */\n      mstore\n        /* \"#utility.yul\":857:861   */\n      0x24\n        /* \"#utility.yul\":854:855   */\n      0x00\n        /* \"#utility.yul\":847:862   */\n      revert\n        /* \"#utility.yul\":874:1155   */\n    tag_21:\n        /* \"#utility.yul\":957:984   */\n      tag_58\n        /* \"#utility.yul\":979:983   */\n      dup3\n        /* \"#utility.yul\":957:984   */\n      tag_19\n      jump\t// in\n    tag_58:\n        /* \"#utility.yul\":949:955   */\n      dup2\n        /* \"#utility.yul\":945:985   */\n      add\n        /* \"#utility.yul\":1087:1093   */\n      dup2\n        /* \"#utility.yul\":1075:1085   */\n      dup2\n        /* \"#utility.yul\":1072:1094   */\n      lt\n        /* \"#utility.yul\":1051:1069   */\n      0xffffffffffffffff\n        /* \"#utility.yul\":1039:1049   */\n      dup3\n        /* \"#utility.yul\":1036:1070   */\n      gt\n        /* \"#utility.yul\":1033:1095   */\n      or\n        /* \"#utility.yul\":1030:1118   */\n      iszero\n      tag_59\n      jumpi\n        /* \"#utility.yul\":1098:1116   */\n      tag_60\n      tag_20\n      jump\t// in\n    tag_60:\n        /* \"#utility.yul\":1030:1118   */\n    tag_59:\n        /* \"#utility.yul\":1138:1148   */\n      dup1\n        /* \"#utility.yul\":1134:1136   */\n      0x40\n        /* \"#utility.yul\":1127:1149   */\n      mstore\n        /* \"#utility.yul\":917:1155   */\n      pop\n        /* \"#utility.yul\":874:1155   */\n      pop\n      pop\n      jump\t// out\n        /* \"#utility.yul\":1161:1290   */\n    tag_22:\n        /* \"#utility.yul\":1195:1201   */\n      0x00\n        /* \"#utility.yul\":1222:1242   */\n      tag_62\n      tag_14\n      jump\t// in\n    tag_62:\n        /* \"#utility.yul\":1212:1242   */\n      swap1\n      pop\n        /* \"#utility.yul\":1251:1284   */\n      tag_63\n        /* \"#utility.yul\":1279:1283   */\n      dup3\n        /* \"#utility.yul\":1271:1277   */\n      dup3\n        /* \"#utility.yul\":1251:1284   */\n      tag_21\n      jump\t// in\n    tag_63:\n        /* \"#utility.yul\":1161:1290   */\n      swap2\n      swap1\n      pop\n      jump\t// out\n        /* \"#utility.yul\":1296:1604   */\n    tag_23:\n        /* \"#utility.yul\":1358:1362   */\n      0x00\n        /* \"#utility.yul\":1448:1466   */\n      0xffffffffffffffff\n        /* \"#utility.yul\":1440:1446   */\n      dup3\n        /* \"#utility.yul\":1437:1467   */\n      gt\n        /* \"#utility.yul\":1434:1490   */\n      iszero\n      tag_65\n      jumpi\n        /* \"#utility.yul\":1470:1488   */\n      tag_66\n      tag_20\n      jump\t// in\n    tag_66:\n        /* \"#utility.yul\":1434:1490   */\n    tag_65:\n        /* \"#utility.yul\":1508:1537   */\n      tag_67\n        /* \"#utility.yul\":1530:1536   */\n      dup3\n        /* \"#utility.yul\":1508:1537   */\n      tag_19\n      jump\t// in\n    tag_67:\n        /* \"#utility.yul\":1500:1537   */\n      swap1\n      pop\n        /* \"#utility.yul\":1592:1596   */\n      0x20\n        /* \"#utility.yul\":1586:1590   */\n      dup2\n        /* \"#utility.yul\":1582:1597   */\n      add\n        /* \"#utility.yul\":1574:1597   */\n      swap1\n      pop\n        /* \"#utility.yul\":1296:1604   */\n      swap2\n      swap1\n      pop\n      jump\t// out\n        /* \"#utility.yul\":1610:1758   */\n    tag_24:\n        /* \"#utility.yul\":1708:1714   */\n      dup3\n        /* \"#utility.yul\":1703:1706   */\n      dup2\n        /* \"#utility.yul\":1698:1701   */\n      dup4\n        /* \"#utility.yul\":1685:1715   */\n      calldatacopy\n        /* \"#utility.yul\":1749:1750   */\n      0x00\n        /* \"#utility.yul\":1740:1746   */\n      dup4\n        /* \"#utility.yul\":1735:1738   */\n      dup4\n        /* \"#utility.yul\":1731:1747   */\n      add\n        /* \"#utility.yul\":1724:1751   */\n      mstore\n        /* \"#utility.yul\":1610:1758   */\n      pop\n      pop\n      pop\n      jump\t// out\n        /* \"#utility.yul\":1764:2189   */\n    tag_25:\n        /* \"#utility.yul\":1842:1847   */\n      0x00\n        /* \"#utility.yul\":1867:1933   */\n      tag_70\n        /* \"#utility.yul\":1883:1932   */\n      tag_71\n        /* \"#utility.yul\":1925:1931   */\n      dup5\n        /* \"#utility.yul\":1883:1932   */\n      tag_23\n      jump\t// in\n    tag_71:\n        /* \"#utility.yul\":1867:1933   */\n      tag_22\n      jump\t// in\n    tag_70:\n        /* \"#utility.yul\":1858:1933   */\n      swap1\n      pop\n        /* \"#utility.yul\":1956:1962   */\n      dup3\n        /* \"#utility.yul\":1949:1954   */\n      dup2\n        /* \"#utility.yul\":1942:1963   */\n      mstore\n        /* \"#utility.yul\":1994:1998   */\n      0x20\n        /* \"#utility.yul\":1987:1992   */\n      dup2\n        /* \"#utility.yul\":1983:1999   */\n      add\n        /* \"#utility.yul\":2032:2035   */\n      dup5\n        /* \"#utility.yul\":2023:2029   */\n      dup5\n        /* \"#utility.yul\":2018:2021   */\n      dup5\n        /* \"#utility.yul\":2014:2030   */\n      add\n        /* \"#utility.yul\":2011:2036   */\n      gt\n        /* \"#utility.yul\":2008:2120   */\n      iszero\n      tag_72\n      jumpi\n        /* \"#utility.yul\":2039:2118   */\n      tag_73\n      tag_18\n      jump\t// in\n    tag_73:\n        /* \"#utility.yul\":2008:2120   */\n    tag_72:\n        /* \"#utility.yul\":2129:2183   */\n      tag_74\n        /* \"#utility.yul\":2176:2182   */\n      dup5\n        /* \"#utility.yul\":2171:2174   */\n      dup3\n        /* \"#utility.yul\":2166:2169   */\n      dup6\n        /* \"#utility.yul\":2129:2183   */\n      tag_24\n      jump\t// in\n    tag_74:\n        /* \"#utility.yul\":1848:2189   */\n      pop\n        /* \"#utility.yul\":1764:2189   */\n      swap4\n      swap3\n      pop\n      pop\n      pop\n      jump\t// out\n        /* \"#utility.yul\":2209:2549   */\n    tag_26:\n        /* \"#utility.yul\":2265:2270   */\n      0x00\n        /* \"#utility.yul\":2314:2317   */\n      dup3\n        /* \"#utility.yul\":2307:2311   */\n      0x1f\n        /* \"#utility.yul\":2299:2305   */\n      dup4\n        /* \"#utility.yul\":2295:2312   */\n      add\n        /* \"#utility.yul\":2291:2318   */\n      slt\n        /* \"#utility.yul\":2281:2403   */\n      tag_76\n      jumpi\n        /* \"#utility.yul\":2322:2401   */\n      tag_77\n      tag_17\n      jump\t// in\n    tag_77:\n        /* \"#utility.yul\":2281:2403   */\n    tag_76:\n        /* \"#utility.yul\":2439:2445   */\n      dup2\n        /* \"#utility.yul\":2426:2446   */\n      calldataload\n        /* \"#utility.yul\":2464:2543   */\n      tag_78\n        /* \"#utility.yul\":2539:2542   */\n      dup5\n        /* \"#utility.yul\":2531:2537   */\n      dup3\n        /* \"#utility.yul\":2524:2528   */\n      0x20\n        /* \"#utility.yul\":2516:2522   */\n      dup7\n        /* \"#utility.yul\":2512:2529   */\n      add\n        /* \"#utility.yul\":2464:2543   */\n      tag_25\n      jump\t// in\n    tag_78:\n        /* \"#utility.yul\":2455:2543   */\n      swap2\n      pop\n        /* \"#utility.yul\":2271:2549   */\n      pop\n        /* \"#utility.yul\":2209:2549   */\n      swap3\n      swap2\n      pop\n      pop\n      jump\t// out\n        /* \"#utility.yul\":2555:2644   */\n    tag_27:\n        /* \"#utility.yul\":2591:2598   */\n      0x00\n        /* \"#utility.yul\":2631:2637   */\n      0xffff\n        /* \"#utility.yul\":2624:2629   */\n      dup3\n        /* \"#utility.yul\":2620:2638   */\n      and\n        /* \"#utility.yul\":2609:2638   */\n      swap1\n      pop\n        /* \"#utility.yul\":2555:2644   */\n      swap2\n      swap1\n      pop\n      jump\t// out\n        /* \"#utility.yul\":2650:2770   */\n    tag_28:\n        /* \"#utility.yul\":2722:2745   */\n      tag_81\n        /* \"#utility.yul\":2739:2744   */\n      dup2\n        /* \"#utility.yul\":2722:2745   */\n      tag_27\n      jump\t// in\n    tag_81:\n        /* \"#utility.yul\":2715:2720   */\n      dup2\n        /* \"#utility.yul\":2712:2746   */\n      eq\n        /* \"#utility.yul\":2702:2764   */\n      tag_82\n      jumpi\n        /* \"#utility.yul\":2760:2761   */\n      0x00\n        /* \"#utility.yul\":2757:2758   */\n      0x00\n        /* \"#utility.yul\":2750:2762   */\n      revert\n        /* \"#utility.yul\":2702:2764   */\n    tag_82:\n        /* \"#utility.yul\":2650:2770   */\n      pop\n      jump\t// out\n        /* \"#utility.yul\":2776:2913   */\n    tag_29:\n        /* \"#utility.yul\":2821:2826   */\n      0x00\n        /* \"#utility.yul\":2859:2865   */\n      dup2\n        /* \"#utility.yul\":2846:2866   */\n      calldataload\n        /* \"#utility.yul\":2837:2866   */\n      swap1\n      pop\n        /* \"#utility.yul\":2875:2907   */\n      tag_84\n        /* \"#utility.yul\":2901:2906   */\n      dup2\n        /* \"#utility.yul\":2875:2907   */\n      tag_28\n      jump\t// in\n    tag_84:\n        /* \"#utility.yul\":2776:2913   */\n      swap3\n      swap2\n      pop\n      pop\n      jump\t// out\n        /* \"#utility.yul\":2919:4222   */\n    tag_6:\n        /* \"#utility.yul\":3034:3040   */\n      0x00\n        /* \"#utility.yul\":3042:3048   */\n      0x00\n        /* \"#utility.yul\":3050:3056   */\n      0x00\n        /* \"#utility.yul\":3058:3064   */\n      0x00\n        /* \"#utility.yul\":3107:3110   */\n      0x80\n        /* \"#utility.yul\":3095:3104   */\n      dup6\n        /* \"#utility.yul\":3086:3093   */\n      dup8\n        /* \"#utility.yul\":3082:3105   */\n      sub\n        /* \"#utility.yul\":3078:3111   */\n      slt\n        /* \"#utility.yul\":3075:3195   */\n      iszero\n      tag_86\n      jumpi\n        /* \"#utility.yul\":3114:3193   */\n      tag_87\n      tag_15\n      jump\t// in\n    tag_87:\n        /* \"#utility.yul\":3075:3195   */\n    tag_86:\n        /* \"#utility.yul\":3262:3263   */\n      0x00\n        /* \"#utility.yul\":3251:3260   */\n      dup6\n        /* \"#utility.yul\":3247:3264   */\n      add\n        /* \"#utility.yul\":3234:3265   */\n      calldataload\n        /* \"#utility.yul\":3292:3310   */\n      0xffffffffffffffff\n        /* \"#utility.yul\":3284:3290   */\n      dup2\n        /* \"#utility.yul\":3281:3311   */\n      gt\n        /* \"#utility.yul\":3278:3395   */\n      iszero\n      tag_88\n      jumpi\n        /* \"#utility.yul\":3314:3393   */\n      tag_89\n      tag_16\n      jump\t// in\n    tag_89:\n        /* \"#utility.yul\":3278:3395   */\n    tag_88:\n        /* \"#utility.yul\":3419:3482   */\n      tag_90\n        /* \"#utility.yul\":3474:3481   */\n      dup8\n        /* \"#utility.yul\":3465:3471   */\n      dup3\n        /* \"#utility.yul\":3454:3463   */\n      dup9\n        /* \"#utility.yul\":3450:3472   */\n      add\n        /* \"#utility.yul\":3419:3482   */\n      tag_26\n      jump\t// in\n    tag_90:\n        /* \"#utility.yul\":3409:3482   */\n      swap5\n      pop\n        /* \"#utility.yul\":3205:3492   */\n      pop\n        /* \"#utility.yul\":3559:3561   */\n      0x20\n        /* \"#utility.yul\":3548:3557   */\n      dup6\n        /* \"#utility.yul\":3544:3562   */\n      add\n        /* \"#utility.yul\":3531:3563   */\n      calldataload\n        /* \"#utility.yul\":3590:3608   */\n      0xffffffffffffffff\n        /* \"#utility.yul\":3582:3588   */\n      dup2\n        /* \"#utility.yul\":3579:3609   */\n      gt\n        /* \"#utility.yul\":3576:3693   */\n      iszero\n      tag_91\n      jumpi\n        /* \"#utility.yul\":3612:3691   */\n      tag_92\n      tag_16\n      jump\t// in\n    tag_92:\n        /* \"#utility.yul\":3576:3693   */\n    tag_91:\n        /* \"#utility.yul\":3717:3780   */\n      tag_93\n        /* \"#utility.yul\":3772:3779   */\n      dup8\n        /* \"#utility.yul\":3763:3769   */\n      dup3\n        /* \"#utility.yul\":3752:3761   */\n      dup9\n        /* \"#utility.yul\":3748:3770   */\n      add\n        /* \"#utility.yul\":3717:3780   */\n      tag_26\n      jump\t// in\n    tag_93:\n        /* \"#utility.yul\":3707:3780   */\n      swap4\n      pop\n        /* \"#utility.yul\":3502:3790   */\n      pop\n        /* \"#utility.yul\":3829:3831   */\n      0x40\n        /* \"#utility.yul\":3855:3907   */\n      tag_94\n        /* \"#utility.yul\":3899:3906   */\n      dup8\n        /* \"#utility.yul\":3890:3896   */\n      dup3\n        /* \"#utility.yul\":3879:3888   */\n      dup9\n        /* \"#utility.yul\":3875:3897   */\n      add\n        /* \"#utility.yul\":3855:3907   */\n      tag_29\n      jump\t// in\n    tag_94:\n        /* \"#utility.yul\":3845:3907   */\n      swap3\n      pop\n        /* \"#utility.yul\":3800:3917   */\n      pop\n        /* \"#utility.yul\":3984:3986   */\n      0x60\n        /* \"#utility.yul\":3973:3982   */\n      dup6\n        /* \"#utility.yul\":3969:3987   */\n      add\n        /* \"#utility.yul\":3956:3988   */\n      calldataload\n        /* \"#utility.yul\":4015:4033   */\n      0xffffffffffffffff\n        /* \"#utility.yul\":4007:4013   */\n      dup2\n        /* \"#utility.yul\":4004:4034   */\n      gt\n        /* \"#utility.yul\":4001:4118   */\n      iszero\n      tag_95\n      jumpi\n        /* \"#utility.yul\":4037:4116   */\n      tag_96\n      tag_16\n      jump\t// in\n    tag_96:\n        /* \"#utility.yul\":4001:4118   */\n    tag_95:\n        /* \"#utility.yul\":4142:4205   */\n      tag_97\n        /* \"#utility.yul\":4197:4204   */\n      dup8\n        /* \"#utility.yul\":4188:4194   */\n      dup3\n        /* \"#utility.yul\":4177:4186   */\n      dup9\n        /* \"#utility.yul\":4173:4195   */\n      add\n        /* \"#utility.yul\":4142:4205   */\n      tag_26\n      jump\t// in\n    tag_97:\n        /* \"#utility.yul\":4132:4205   */\n      swap2\n      pop\n        /* \"#utility.yul\":3927:4215   */\n      pop\n        /* \"#utility.yul\":2919:4222   */\n      swap3\n      swap6\n      swap2\n      swap5\n      pop\n      swap3\n      pop\n      jump\t// out\n        /* \"#utility.yul\":4228:4327   */\n    tag_30:\n        /* \"#utility.yul\":4280:4286   */\n      0x00\n        /* \"#utility.yul\":4314:4319   */\n      dup2\n        /* \"#utility.yul\":4308:4320   */\n      mload\n        /* \"#utility.yul\":4298:4320   */\n      swap1\n      pop\n        /* \"#utility.yul\":4228:4327   */\n      swap2\n      swap1\n      pop\n      jump\t// out\n        /* \"#utility.yul\":4333:4513   */\n    tag_31:\n        /* \"#utility.yul\":4381:4458   */\n      0x4e487b7100000000000000000000000000000000000000000000000000000000\n        /* \"#utility.yul\":4378:4379   */\n      0x00\n        /* \"#utility.yul\":4371:4459   */\n      mstore\n        /* \"#utility.yul\":4478:4482   */\n      0x22\n        /* \"#utility.yul\":4475:4476   */\n      0x04\n        /* \"#utility.yul\":4468:4483   */\n      mstore\n        /* \"#utility.yul\":4502:4506   */\n      0x24\n        /* \"#utility.yul\":4499:4500   */\n      0x00\n        /* \"#utility.yul\":4492:4507   */\n      revert\n        /* \"#utility.yul\":4519:4839   */\n    tag_32:\n        /* \"#utility.yul\":4563:4569   */\n      0x00\n        /* \"#utility.yul\":4600:4601   */\n      0x02\n        /* \"#utility.yul\":4594:4598   */\n      dup3\n        /* \"#utility.yul\":4590:4602   */\n      div\n        /* \"#utility.yul\":4580:4602   */\n      swap1\n      pop\n        /* \"#utility.yul\":4647:4648   */\n      0x01\n        /* \"#utility.yul\":4641:4645   */\n      dup3\n        /* \"#utility.yul\":4637:4649   */\n      and\n        /* \"#utility.yul\":4668:4686   */\n      dup1\n        /* \"#utility.yul\":4658:4739   */\n      tag_101\n      jumpi\n        /* \"#utility.yul\":4724:4728   */\n      0x7f\n        /* \"#utility.yul\":4716:4722   */\n      dup3\n        /* \"#utility.yul\":4712:4729   */\n      and\n        /* \"#utility.yul\":4702:4729   */\n      swap2\n      pop\n        /* \"#utility.yul\":4658:4739   */\n    tag_101:\n        /* \"#utility.yul\":4786:4788   */\n      0x20\n        /* \"#utility.yul\":4778:4784   */\n      dup3\n        /* \"#utility.yul\":4775:4789   */\n      lt\n        /* \"#utility.yul\":4755:4773   */\n      dup2\n        /* \"#utility.yul\":4752:4790   */\n      sub\n        /* \"#utility.yul\":4749:4833   */\n      tag_102\n      jumpi\n        /* \"#utility.yul\":4805:4823   */\n      tag_103\n      tag_31\n      jump\t// in\n    tag_103:\n        /* \"#utility.yul\":4749:4833   */\n    tag_102:\n        /* \"#utility.yul\":4570:4839   */\n      pop\n        /* \"#utility.yul\":4519:4839   */\n      swap2\n      swap1\n      pop\n      jump\t// out\n        /* \"#utility.yul\":4845:4986   */\n    tag_33:\n        /* \"#utility.yul\":4894:4898   */\n      0x00\n        /* \"#utility.yul\":4917:4920   */\n      dup2\n        /* \"#utility.yul\":4909:4920   */\n      swap1\n      pop\n        /* \"#utility.yul\":4940:4943   */\n      dup2\n        /* \"#utility.yul\":4937:4938   */\n      0x00\n        /* \"#utility.yul\":4930:4944   */\n      mstore\n        /* \"#utility.yul\":4974:4978   */\n      0x20\n        /* \"#utility.yul\":4971:4972   */\n      0x00\n        /* \"#utility.yul\":4961:4979   */\n      keccak256\n        /* \"#utility.yul\":4953:4979   */\n      swap1\n      pop\n        /* \"#utility.yul\":4845:4986   */\n      swap2\n      swap1\n      pop\n      jump\t// out\n        /* \"#utility.yul\":4992:5085   */\n    tag_34:\n        /* \"#utility.yul\":5029:5035   */\n      0x00\n        /* \"#utility.yul\":5076:5078   */\n      0x20\n        /* \"#utility.yul\":5071:5073   */\n      0x1f\n        /* \"#utility.yul\":5064:5069   */\n      dup4\n        /* \"#utility.yul\":5060:5074   */\n      add\n        /* \"#utility.yul\":5056:5079   */\n      div\n        /* \"#utility.yul\":5046:5079   */\n      swap1\n      pop\n        /* \"#utility.yul\":4992:5085   */\n      swap2\n      swap1\n      pop\n      jump\t// out\n        /* \"#utility.yul\":5091:5198   */\n    tag_35:\n        /* \"#utility.yul\":5135:5143   */\n      0x00\n        /* \"#utility.yul\":5185:5190   */\n      dup3\n        /* \"#utility.yul\":5179:5183   */\n      dup3\n        /* \"#utility.yul\":5175:5191   */\n      shl\n        /* \"#utility.yul\":5154:5191   */\n      swap1\n      pop\n        /* \"#utility.yul\":5091:5198   */\n      swap3\n      swap2\n      pop\n      pop\n      jump\t// out\n        /* \"#utility.yul\":5204:5597   */\n    tag_36:\n        /* \"#utility.yul\":5273:5279   */\n      0x00\n        /* \"#utility.yul\":5323:5324   */\n      0x08\n        /* \"#utility.yul\":5311:5321   */\n      dup4\n        /* \"#utility.yul\":5307:5325   */\n      mul\n        /* \"#utility.yul\":5346:5443   */\n      tag_108\n        /* \"#utility.yul\":5376:5442   */\n      0xffffffffffffffffffffffffffffffffffffffffffffffffffffffffffffffff\n        /* \"#utility.yul\":5365:5374   */\n      dup3\n        /* \"#utility.yul\":5346:5443   */\n      tag_35\n      jump\t// in\n    tag_108:\n        /* \"#utility.yul\":5464:5503   */\n      tag_109\n        /* \"#utility.yul\":5494:5502   */\n      dup7\n        /* \"#utility.yul\":5483:5492   */\n      dup4\n        /* \"#utility.yul\":5464:5503   */\n      tag_35\n      jump\t// in\n    tag_109:\n        /* \"#utility.yul\":5452:5503   */\n      swap6\n      pop\n        /* \"#utility.yul\":5536:5540   */\n      dup1\n        /* \"#utility.yul\":5532:5541   */\n      not\n        /* \"#utility.yul\":5525:5530   */\n      dup5\n        /* \"#utility.yul\":5521:5542   */\n      and\n        /* \"#utility.yul\":5512:5542   */\n      swap4\n      pop\n        /* \"#utility.yul\":5585:5589   */\n      dup1\n        /* \"#utility.yul\":5575:5583   */\n      dup7\n        /* \"#utility.yul\":5571:5590   */\n      and\n        /* \"#utility.yul\":5564:5569   */\n      dup5\n        /* \"#utility.yul\":5561:5591   */\n      or\n        /* \"#utility.yul\":5551:5591   */\n      swap3\n      pop\n        /* \"#utility.yul\":5280:5597   */\n      pop\n      pop\n        /* \"#utility.yul\":5204:5597   */\n      swap4\n      swap3\n      pop\n      pop\n      pop\n      jump\t// out\n        /* \"#utility.yul\":5603:5680   */\n    tag_37:\n        /* \"#utility.yul\":5640:5647   */\n      0x00\n        /* \"#utility.yul\":5669:5674   */\n      dup2\n        /* \"#utility.yul\":5658:5674   */\n      swap1\n      pop\n        /* \"#utility.yul\":5603:5680   */\n      swap2\n      swap1\n      pop\n      jump\t// out\n        /* \"#utility.yul\":5686:5746   */\n    tag_38:\n        /* \"#utility.yul\":5714:5717   */\n      0x00\n        /* \"#utility.yul\":5735:5740   */\n      dup2\n        /* \"#utility.yul\":5728:5740   */\n      swap1\n      pop\n        /* \"#utility.yul\":5686:5746   */\n      swap2\n      swap1\n      pop\n      jump\t// out\n        /* \"#utility.yul\":5752:5894   */\n    tag_39:\n        /* \"#utility.yul\":5802:5811   */\n      0x00\n        /* \"#utility.yul\":5835:5888   */\n      tag_113\n        /* \"#utility.yul\":5853:5887   */\n      tag_114\n        /* \"#utility.yul\":5862:5886   */\n      tag_115\n        /* \"#utility.yul\":5880:5885   */\n      dup5\n        /* \"#utility.yul\":5862:5886   */\n      tag_37\n      jump\t// in\n    tag_115:\n        /* \"#utility.yul\":5853:5887   */\n      tag_38\n      jump\t// in\n    tag_114:\n        /* \"#utility.yul\":5835:5888   */\n      tag_37\n      jump\t// in\n    tag_113:\n        /* \"#utility.yul\":5822:5888   */\n      swap1\n      pop\n        /* \"#utility.yul\":5752:5894   */\n      swap2\n      swap1\n      pop\n      jump\t// out\n        /* \"#utility.yul\":5900:5975   */\n    tag_40:\n        /* \"#utility.yul\":5943:5946   */\n      0x00\n        /* \"#utility.yul\":5964:5969   */\n      dup2\n        /* \"#utility.yul\":5957:5969   */\n      swap1\n      pop\n        /* \"#utility.yul\":5900:5975   */\n      swap2\n      swap1\n      pop\n      jump\t// out\n        /* \"#utility.yul\":5981:6250   */\n    tag_41:\n        /* \"#utility.yul\":6091:6130   */\n      tag_118\n        /* \"#utility.yul\":6122:6129   */\n      dup4\n        /* \"#utility.yul\":6091:6130   */\n      tag_39\n      jump\t// in\n    tag_118:\n        /* \"#utility.yul\":6152:6243   */\n      tag_119\n        /* \"#utility.yul\":6201:6242   */\n      tag_120\n        /* \"#utility.yul\":6225:6241   */\n      dup3\n        /* \"#utility.yul\":6201:6242   */\n      tag_40\n      jump\t// in\n    tag_120:\n        /* \"#utility.yul\":6193:6199   */\n      dup5\n        /* \"#utility.yul\":6186:6190   */\n      dup5\n        /* \"#utility.yul\":6180:6191   */\n      sload\n        /* \"#utility.yul\":6152:6243   */\n      tag_36\n      jump\t// in\n    tag_119:\n        /* \"#utility.yul\":6146:6150   */\n      dup3\n        /* \"#utility.yul\":6139:6244   */\n      sstore\n        /* \"#utility.yul\":6057:6250   */\n      pop\n        /* \"#utility.yul\":5981:6250   */\n      pop\n      pop\n      pop\n      jump\t// out\n        /* \"#utility.yul\":6256:6329   */\n    tag_42:\n        /* \"#utility.yul\":6301:6304   */\n      0x00\n        /* \"#utility.yul\":6322:6323   */\n      0x00\n        /* \"#utility.yul\":6315:6323   */\n      swap1\n      pop\n        /* \"#utility.yul\":6256:6329   */\n      swap1\n      jump\t// out\n        /* \"#utility.yul\":6335:6524   */\n    tag_43:\n        /* \"#utility.yul\":6412:6444   */\n      tag_123\n      tag_42\n      jump\t// in\n    tag_123:\n        /* \"#utility.yul\":6453:6518   */\n      tag_124\n        /* \"#utility.yul\":6511:6517   */\n      dup2\n        /* \"#utility.yul\":6503:6509   */\n      dup5\n        /* \"#utility.yul\":6497:6501   */\n      dup5\n        /* \"#utility.yul\":6453:6518   */\n      tag_41\n      jump\t// in\n    tag_124:\n        /* \"#utility.yul\":6388:6524   */\n      pop\n        /* \"#utility.yul\":6335:6524   */\n      pop\n      pop\n      jump\t// out\n        /* \"#utility.yul\":6530:6716   */\n    tag_44:\n        /* \"#utility.yul\":6590:6710   */\n    tag_126:\n        /* \"#utility.yul\":6607:6610   */\n      dup2\n        /* \"#utility.yul\":6600:6605   */\n      dup2\n        /* \"#utility.yul\":6597:6611   */\n      lt\n        /* \"#utility.yul\":6590:6710   */\n      iszero\n      tag_128\n      jumpi\n        /* \"#utility.yul\":6661:6700   */\n      tag_129\n        /* \"#utility.yul\":6698:6699   */\n      0x00\n        /* \"#utility.yul\":6691:6696   */\n      dup3\n        /* \"#utility.yul\":6661:6700   */\n      tag_43\n      jump\t// in\n    tag_129:\n        /* \"#utility.yul\":6634:6635   */\n      0x01\n        /* \"#utility.yul\":6627:6632   */\n      dup2\n        /* \"#utility.yul\":6623:6636   */\n      add\n        /* \"#utility.yul\":6614:6636   */\n      swap1\n      pop\n        /* \"#utility.yul\":6590:6710   */\n      jump(tag_126)\n    tag_128:\n        /* \"#utility.yul\":6530:6716   */\n      pop\n      pop\n      jump\t// out\n        /* \"#utility.yul\":6722:7265   */\n    tag_45:\n        /* \"#utility.yul\":6823:6825   */\n      0x1f\n        /* \"#utility.yul\":6818:6821   */\n      dup3\n        /* \"#utility.yul\":6815:6826   */\n      gt\n        /* \"#utility.yul\":6812:7258   */\n      iszero\n      tag_131\n      jumpi\n        /* \"#utility.yul\":6857:6895   */\n      tag_132\n        /* \"#utility.yul\":6889:6894   */\n      dup2\n        /* \"#utility.yul\":6857:6895   */\n      tag_33\n      jump\t// in\n    tag_132:\n        /* \"#utility.yul\":6941:6970   */\n      tag_133\n        /* \"#utility.yul\":6959:6969   */\n      dup5\n        /* \"#utility.yul\":6941:6970   */\n      tag_34\n      jump\t// in\n    tag_133:\n        /* \"#utility.yul\":6931:6939   */\n      dup2\n        /* \"#utility.yul\":6927:6971   */\n      add\n        /* \"#utility.yul\":7124:7126   */\n      0x20\n        /* \"#utility.yul\":7112:7122   */\n      dup6\n        /* \"#utility.yul\":7109:7127   */\n      lt\n        /* \"#utility.yul\":7106:7155   */\n      iszero\n      tag_134\n      jumpi\n        /* \"#utility.yul\":7145:7153   */\n      dup2\n        /* \"#utility.yul\":7130:7153   */\n      swap1\n      pop\n        /* \"#utility.yul\":7106:7155   */\n    tag_134:\n        /* \"#utility.yul\":7168:7248   */\n      tag_135\n        /* \"#utility.yul\":7224:7246   */\n      tag_136\n        /* \"#utility.yul\":7242:7245   */\n      dup6\n        /* \"#utility.yul\":7224:7246   */\n      tag_34\n      jump\t// in\n    tag_136:\n        /* \"#utility.yul\":7214:7222   */\n      dup4\n        /* \"#utility.yul\":7210:7247   */\n      add\n        /* \"#utility.yul\":7197:7208   */\n      dup3\n        /* \"#utility.yul\":7168:7248   */\n      tag_44\n      jump\t// in\n    tag_135:\n        /* \"#utility.yul\":6827:7258   */\n      pop\n      pop\n        /* \"#utility.yul\":6812:7258   */\n    tag_131:\n        /* \"#utility.yul\":6722:7265   */\n      pop\n      pop\n      pop\n      jump\t// out\n        /* \"#utility.yul\":7271:7388   */\n    tag_46:\n        /* \"#utility.yul\":7325:7333   */\n      0x00\n        /* \"#utility.yul\":7375:7380   */\n      dup3\n        /* \"#utility.yul\":7369:7373   */\n      dup3\n        /* \"#utility.yul\":7365:7381   */\n      shr\n        /* \"#utility.yul\":7344:7381   */\n      swap1\n      pop\n        /* \"#utility.yul\":7271:7388   */\n      swap3\n      swap2\n      pop\n      pop\n      jump\t// out\n        /* \"#utility.yul\":7394:7563   */\n    tag_47:\n        /* \"#utility.yul\":7438:7444   */\n      0x00\n        /* \"#utility.yul\":7471:7522   */\n      tag_139\n        /* \"#utility.yul\":7519:7520   */\n      0x00\n        /* \"#utility.yul\":7515:7521   */\n      not\n        /* \"#utility.yul\":7507:7512   */\n      dup5\n        /* \"#utility.yul\":7504:7505   */\n      0x08\n        /* \"#utility.yul\":7500:7513   */\n      mul\n        /* \"#utility.yul\":7471:7522   */\n      tag_46\n      jump\t// in\n    tag_139:\n        /* \"#utility.yul\":7467:7523   */\n      not\n        /* \"#utility.yul\":7552:7556   */\n      dup1\n        /* \"#utility.yul\":7546:7550   */\n      dup4\n        /* \"#utility.yul\":7542:7557   */\n      and\n        /* \"#utility.yul\":7532:7557   */\n      swap2\n      pop\n        /* \"#utility.yul\":7445:7563   */\n      pop\n        /* \"#utility.yul\":7394:7563   */\n      swap3\n      swap2\n      pop\n      pop\n      jump\t// out\n        /* \"#utility.yul\":7568:7863   */\n    tag_48:\n        /* \"#utility.yul\":7644:7648   */\n      0x00\n        /* \"#utility.yul\":7790:7819   */\n      tag_141\n        /* \"#utility.yul\":7815:7818   */\n      dup4\n        /* \"#utility.yul\":7809:7813   */\n      dup4\n        /* \"#utility.yul\":7790:7819   */\n      tag_47\n      jump\t// in\n    tag_141:\n        /* \"#utility.yul\":7782:7819   */\n      swap2\n      pop\n        /* \"#utility.yul\":7852:7855   */\n      dup3\n        /* \"#utility.yul\":7849:7850   */\n      0x02\n        /* \"#utility.yul\":7845:7856   */\n      mul\n        /* \"#utility.yul\":7839:7843   */\n      dup3\n        /* \"#utility.yul\":7836:7857   */\n      or\n        /* \"#utility.yul\":7828:7857   */\n      swap1\n      pop\n        /* \"#utility.yul\":7568:7863   */\n      swap3\n      swap2\n      pop\n      pop\n      jump\t// out\n        /* \"#utility.yul\":7868:9263   */\n    tag_11:\n        /* \"#utility.yul\":7985:8022   */\n      tag_143\n        /* \"#utility.yul\":8018:8021   */\n      dup3\n        /* \"#utility.yul\":7985:8022   */\n      tag_30\n      jump\t// in\n    tag_143:\n        /* \"#utility.yul\":8087:8105   */\n      0xffffffffffffffff\n        /* \"#utility.yul\":8079:8085   */\n      dup2\n        /* \"#utility.yul\":8076:8106   */\n      gt\n        /* \"#utility.yul\":8073:8129   */\n      iszero\n      tag_144\n      jumpi\n        /* \"#utility.yul\":8109:8127   */\n      tag_145\n      tag_20\n      jump\t// in\n    tag_145:\n        /* \"#utility.yul\":8073:8129   */\n    tag_144:\n        /* \"#utility.yul\":8153:8191   */\n      tag_146\n        /* \"#utility.yul\":8185:8189   */\n      dup3\n        /* \"#utility.yul\":8179:8190   */\n      sload\n        /* \"#utility.yul\":8153:8191   */\n      tag_32\n      jump\t// in\n    tag_146:\n        /* \"#utility.yul\":8238:8305   */\n      tag_147\n        /* \"#utility.yul\":8298:8304   */\n      dup3\n        /* \"#utility.yul\":8290:8296   */\n      dup3\n        /* \"#utility.yul\":8284:8288   */\n      dup6\n        /* \"#utility.yul\":8238:8305   */\n      tag_45\n      jump\t// in\n    tag_147:\n        /* \"#utility.yul\":8332:8333   */\n      0x00\n        /* \"#utility.yul\":8356:8360   */\n      0x20\n        /* \"#utility.yul\":8343:8360   */\n      swap1\n      pop\n        /* \"#utility.yul\":8388:8390   */\n      0x1f\n        /* \"#utility.yul\":8380:8386   */\n      dup4\n        /* \"#utility.yul\":8377:8391   */\n      gt\n        /* \"#utility.yul\":8405:8406   */\n      0x01\n        /* \"#utility.yul\":8400:9018   */\n      dup2\n      eq\n      tag_149\n      jumpi\n        /* \"#utility.yul\":9062:9063   */\n      0x00\n        /* \"#utility.yul\":9079:9085   */\n      dup5\n        /* \"#utility.yul\":9076:9153   */\n      iszero\n      tag_150\n      jumpi\n        /* \"#utility.yul\":9128:9137   */\n      dup3\n        /* \"#utility.yul\":9123:9126   */\n      dup8\n        /* \"#utility.yul\":9119:9138   */\n      add\n        /* \"#utility.yul\":9113:9139   */\n      mload\n        /* \"#utility.yul\":9104:9139   */\n      swap1\n      pop\n        /* \"#utility.yul\":9076:9153   */\n    tag_150:\n        /* \"#utility.yul\":9179:9246   */\n      tag_151\n        /* \"#utility.yul\":9239:9245   */\n      dup6\n        /* \"#utility.yul\":9232:9237   */\n      dup3\n        /* \"#utility.yul\":9179:9246   */\n      tag_48\n      jump\t// in\n    tag_151:\n        /* \"#utility.yul\":9173:9177   */\n      dup7\n        /* \"#utility.yul\":9166:9247   */\n      sstore\n        /* \"#utility.yul\":9035:9257   */\n      pop\n        /* \"#utility.yul\":8370:9257   */\n      jump(tag_148)\n        /* \"#utility.yul\":8400:9018   */\n    tag_149:\n        /* \"#utility.yul\":8452:8456   */\n      0x1f\n        /* \"#utility.yul\":8448:8457   */\n      not\n        /* \"#utility.yul\":8440:8446   */\n      dup5\n        /* \"#utility.yul\":8436:8458   */\n      and\n        /* \"#utility.yul\":8486:8523   */\n      tag_152\n        /* \"#utility.yul\":8518:8522   */\n      dup7\n        /* \"#utility.yul\":8486:8523   */\n      tag_33\n      jump\t// in\n    tag_152:\n        /* \"#utility.yul\":8545:8546   */\n      0x00\n        /* \"#utility.yul\":8559:8767   */\n    tag_153:\n        /* \"#utility.yul\":8573:8580   */\n      dup3\n        /* \"#utility.yul\":8570:8571   */\n      dup2\n        /* \"#utility.yul\":8567:8581   */\n      lt\n        /* \"#utility.yul\":8559:8767   */\n      iszero\n      tag_155\n      jumpi\n        /* \"#utility.yul\":8652:8661   */\n      dup5\n        /* \"#utility.yul\":8647:8650   */\n      dup10\n        /* \"#utility.yul\":8643:8662   */\n      add\n        /* \"#utility.yul\":8637:8663   */\n      mload\n        /* \"#utility.yul\":8629:8635   */\n      dup3\n        /* \"#utility.yul\":8622:8664   */\n      sstore\n        /* \"#utility.yul\":8703:8704   */\n      0x01\n        /* \"#utility.yul\":8695:8701   */\n      dup3\n        /* \"#utility.yul\":8691:8705   */\n      add\n        /* \"#utility.yul\":8681:8705   */\n      swap2\n      pop\n        /* \"#utility.yul\":8750:8752   */\n      0x20\n        /* \"#utility.yul\":8739:8748   */\n      dup6\n        /* \"#utility.yul\":8735:8753   */\n      add\n        /* \"#utility.yul\":8722:8753   */\n      swap5\n      pop\n        /* \"#utility.yul\":8596:8600   */\n      0x20\n        /* \"#utility.yul\":8593:8594   */\n      dup2\n        /* \"#utility.yul\":8589:8601   */\n      add\n        /* \"#utility.yul\":8584:8601   */\n      swap1\n      pop\n        /* \"#utility.yul\":8559:8767   */\n      jump(tag_153)\n    tag_155:\n        /* \"#utility.yul\":8795:8801   */\n      dup7\n        /* \"#utility.yul\":8786:8793   */\n      dup4\n        /* \"#utility.yul\":8783:8802   */\n      lt\n        /* \"#utility.yul\":8780:8959   */\n      iszero\n      tag_156\n      jumpi\n        /* \"#utility.yul\":8853:8862   */\n      dup5\n        /* \"#utility.yul\":8848:8851   */\n      dup10\n        /* \"#utility.yul\":8844:8863   */\n      add\n        /* \"#utility.yul\":8838:8864   */\n      mload\n        /* \"#utility.yul\":8896:8944   */\n      tag_157\n        /* \"#utility.yul\":8938:8942   */\n      0x1f\n        /* \"#utility.yul\":8930:8936   */\n      dup10\n        /* \"#utility.yul\":8926:8943   */\n      and\n        /* \"#utility.yul\":8915:8924   */\n      dup3\n        /* \"#utility.yul\":8896:8944   */\n      tag_47\n      jump\t// in\n    tag_157:\n        /* \"#utility.yul\":8888:8894   */\n      dup4\n        /* \"#utility.yul\":8881:8945   */\n      sstore\n        /* \"#utility.yul\":8803:8959   */\n      pop\n        /* \"#utility.yul\":8780:8959   */\n    tag_156:\n        /* \"#utility.yul\":9005:9006   */\n      0x01\n        /* \"#utility.yul\":9001:9002   */\n      0x02\n        /* \"#utility.yul\":8993:8999   */\n      dup9\n        /* \"#utility.yul\":8989:9003   */\n      mul\n        /* \"#utility.yul\":8985:9007   */\n      add\n        /* \"#utility.yul\":8979:8983   */\n      dup9\n        /* \"#utility.yul\":8972:9008   */\n      sstore\n        /* \"#utility.yul\":8407:9018   */\n      pop\n      pop\n      pop\n        /* \"#utility.yul\":8370:9257   */\n    tag_148:\n      pop\n        /* \"#utility.yul\":7960:9263   */\n      pop\n      pop\n      pop\n        /* \"#utility.yul\":7868:9263   */\n      pop\n      pop\n      jump\t// out\n\n    auxdata: 0xa2646970667358221220e30e837121eb7447beb0081846b315f78977a9a738bcdd15e6f24669a189631864736f6c634300081e0033\n}\n",
				"bytecode": {
					"linkReferences": {},
					"object": "6080604052348015600e575f5ffd5b506106508061001c5f395ff3fe608060405234801561000f575f5ffd5b5060043610610029575f3560e01c8063ea4c864a1461002d575b5f5ffd5b61004760048036038101906100429190610283565b610049565b005b5f60405180608001604052808681526020018581526020018461ffff16815260200183815250908060018154018082558091505060019003905f5260205f2090600402015f909190919091505f820151815f0190816100a8919061054b565b5060208201518160010190816100be919061054b565b506040820151816002015f6101000a81548161ffff021916908361ffff16021790555060608201518160030190816100f6919061054b565b50505050505050565b5f604051905090565b5f5ffd5b5f5ffd5b5f5ffd5b5f5ffd5b5f601f19601f8301169050919050565b7f4e487b71000000000000000000000000000000000000000000000000000000005f52604160045260245ffd5b61015e82610118565b810181811067ffffffffffffffff8211171561017d5761017c610128565b5b80604052505050565b5f61018f6100ff565b905061019b8282610155565b919050565b5f67ffffffffffffffff8211156101ba576101b9610128565b5b6101c382610118565b9050602081019050919050565b828183375f83830152505050565b5f6101f06101eb846101a0565b610186565b90508281526020810184848401111561020c5761020b610114565b5b6102178482856101d0565b509392505050565b5f82601f83011261023357610232610110565b5b81356102438482602086016101de565b91505092915050565b5f61ffff82169050919050565b6102628161024c565b811461026c575f5ffd5b50565b5f8135905061027d81610259565b92915050565b5f5f5f5f6080858703121561029b5761029a610108565b5b5f85013567ffffffffffffffff8111156102b8576102b761010c565b5b6102c48782880161021f565b945050602085013567ffffffffffffffff8111156102e5576102e461010c565b5b6102f18782880161021f565b93505060406103028782880161026f565b925050606085013567ffffffffffffffff8111156103235761032261010c565b5b61032f8782880161021f565b91505092959194509250565b5f81519050919050565b7f4e487b71000000000000000000000000000000000000000000000000000000005f52602260045260245ffd5b5f600282049050600182168061038957607f821691505b60208210810361039c5761039b610345565b5b50919050565b5f819050815f5260205f209050919050565b5f6020601f8301049050919050565b5f82821b905092915050565b5f600883026103fe7fffffffffffffffffffffffffffffffffffffffffffffffffffffffffffffffff826103c3565b61040886836103c3565b95508019841693508086168417925050509392505050565b5f819050919050565b5f819050919050565b5f61044c61044761044284610420565b610429565b610420565b9050919050565b5f819050919050565b61046583610432565b61047961047182610453565b8484546103cf565b825550505050565b5f5f905090565b610490610481565b61049b81848461045c565b505050565b5b818110156104be576104b35f82610488565b6001810190506104a1565b5050565b601f821115610503576104d4816103a2565b6104dd846103b4565b810160208510156104ec578190505b6105006104f8856103b4565b8301826104a0565b50505b505050565b5f82821c905092915050565b5f6105235f1984600802610508565b1980831691505092915050565b5f61053b8383610514565b9150826002028217905092915050565b6105548261033b565b67ffffffffffffffff81111561056d5761056c610128565b5b6105778254610372565b6105828282856104c2565b5f60209050601f8311600181146105b3575f84156105a1578287015190505b6105ab8582610530565b865550610612565b601f1984166105c1866103a2565b5f5b828110156105e8578489015182556001820191506020850194506020810190506105c3565b868310156106055784890151610601601f891682610514565b8355505b6001600288020188555050505b50505050505056fea2646970667358221220e30e837121eb7447beb0081846b315f78977a9a738bcdd15e6f24669a189631864736f6c634300081e0033",
					"opcodes": "PUSH1 0x80 PUSH1 0x40 MSTORE CALLVALUE DUP1 ISZERO PUSH1 0xE JUMPI PUSH0 PUSH0 REVERT JUMPDEST POP PUSH2 0x650 DUP1 PUSH2 0x1C PUSH0 CODECOPY PUSH0 RETURN INVALID PUSH1 0x80 PUSH1 0x40 MSTORE CALLVALUE DUP1 ISZERO PUSH2 0xF JUMPI PUSH0 PUSH0 REVERT JUMPDEST POP PUSH1 0x4 CALLDATASIZE LT PUSH2 0x29 JUMPI PUSH0 CALLDATALOAD PUSH1 0xE0 SHR DUP1 PUSH4 0xEA4C864A EQ PUSH2 0x2D JUMPI JUMPDEST PUSH0 PUSH0 REVERT JUMPDEST PUSH2 0x47 PUSH1 0x4 DUP1 CALLDATASIZE SUB DUP2 ADD SWAP1 PUSH2 0x42 SWAP2 SWAP1 PUSH2 0x283 JUMP JUMPDEST PUSH2 0x49 JUMP JUMPDEST STOP JUMPDEST PUSH0 PUSH1 0x40 MLOAD DUP1 PUSH1 0x80 ADD PUSH1 0x40 MSTORE DUP1 DUP7 DUP2 MSTORE PUSH1 0x20 ADD DUP6 DUP2 MSTORE PUSH1 0x20 ADD DUP5 PUSH2 0xFFFF AND DUP2 MSTORE PUSH1 0x20 ADD DUP4 DUP2 MSTORE POP SWAP1 DUP1 PUSH1 0x1 DUP2 SLOAD ADD DUP1 DUP3 SSTORE DUP1 SWAP2 POP POP PUSH1 0x1 SWAP1 SUB SWAP1 PUSH0 MSTORE PUSH1 0x20 PUSH0 KECCAK256 SWAP1 PUSH1 0x4 MUL ADD PUSH0 SWAP1 SWAP2 SWAP1 SWAP2 SWAP1 SWAP2 POP PUSH0 DUP3 ADD MLOAD DUP2 PUSH0 ADD SWAP1 DUP2 PUSH2 0xA8 SWAP2 SWAP1 PUSH2 0x54B JUMP JUMPDEST POP PUSH1 0x20 DUP3 ADD MLOAD DUP2 PUSH1 0x1 ADD SWAP1 DUP2 PUSH2 0xBE SWAP2 SWAP1 PUSH2 0x54B JUMP JUMPDEST POP PUSH1 0x40 DUP3 ADD MLOAD DUP2 PUSH1 0x2 ADD PUSH0 PUSH2 0x100 EXP DUP2 SLOAD DUP2 PUSH2 0xFFFF MUL NOT AND SWAP1 DUP4 PUSH2 0xFFFF AND MUL OR SWAP1 SSTORE POP PUSH1 0x60 DUP3 ADD MLOAD DUP2 PUSH1 0x3 ADD SWAP1 DUP2 PUSH2 0xF6 SWAP2 SWAP1 PUSH2 0x54B JUMP JUMPDEST POP POP POP POP POP POP POP JUMP JUMPDEST PUSH0 PUSH1 0x40 MLOAD SWAP1 POP SWAP1 JUMP JUMPDEST PUSH0 PUSH0 REVERT JUMPDEST PUSH0 PUSH0 REVERT JUMPDEST PUSH0 PUSH0 REVERT JUMPDEST PUSH0 PUSH0 REVERT JUMPDEST PUSH0 PUSH1 0x1F NOT PUSH1 0x1F DUP4 ADD AND SWAP1 POP SWAP2 SWAP1 POP JUMP JUMPDEST PUSH32 0x4E487B7100000000000000000000000000000000000000000000000000000000 PUSH0 MSTORE PUSH1 0x41 PUSH1 0x4 MSTORE PUSH1 0x24 PUSH0 REVERT JUMPDEST PUSH2 0x15E DUP3 PUSH2 0x118 JUMP JUMPDEST DUP2 ADD DUP2 DUP2 LT PUSH8 0xFFFFFFFFFFFFFFFF DUP3 GT OR ISZERO PUSH2 0x17D JUMPI PUSH2 0x17C PUSH2 0x128 JUMP JUMPDEST JUMPDEST DUP1 PUSH1 0x40 MSTORE POP POP POP JUMP JUMPDEST PUSH0 PUSH2 0x18F PUSH2 0xFF JUMP JUMPDEST SWAP1 POP PUSH2 0x19B DUP3 DUP3 PUSH2 0x155 JUMP JUMPDEST SWAP2 SWAP1 POP JUMP JUMPDEST PUSH0 PUSH8 0xFFFFFFFFFFFFFFFF DUP3 GT ISZERO PUSH2 0x1BA JUMPI PUSH2 0x1B9 PUSH2 0x128 JUMP JUMPDEST JUMPDEST PUSH2 0x1C3 DUP3 PUSH2 0x118 JUMP JUMPDEST SWAP1 POP PUSH1 0x20 DUP2 ADD SWAP1 POP SWAP2 SWAP1 POP JUMP JUMPDEST DUP3 DUP2 DUP4 CALLDATACOPY PUSH0 DUP4 DUP4 ADD MSTORE POP POP POP JUMP JUMPDEST PUSH0 PUSH2 0x1F0 PUSH2 0x1EB DUP5 PUSH2 0x1A0 JUMP JUMPDEST PUSH2 0x186 JUMP JUMPDEST SWAP1 POP DUP3 DUP2 MSTORE PUSH1 0x20 DUP2 ADD DUP5 DUP5 DUP5 ADD GT ISZERO PUSH2 0x20C JUMPI PUSH2 0x20B PUSH2 0x114 JUMP JUMPDEST JUMPDEST PUSH2 0x217 DUP5 DUP3 DUP6 PUSH2 0x1D0 JUMP JUMPDEST POP SWAP4 SWAP3 POP POP POP JUMP JUMPDEST PUSH0 DUP3 PUSH1 0x1F DUP4 ADD SLT PUSH2 0x233 JUMPI PUSH2 0x232 PUSH2 0x110 JUMP JUMPDEST JUMPDEST DUP2 CALLDATALOAD PUSH2 0x243 DUP5 DUP3 PUSH1 0x20 DUP7 ADD PUSH2 0x1DE JUMP JUMPDEST SWAP2 POP POP SWAP3 SWAP2 POP POP JUMP JUMPDEST PUSH0 PUSH2 0xFFFF DUP3 AND SWAP1 POP SWAP2 SWAP1 POP JUMP JUMPDEST PUSH2 0x262 DUP2 PUSH2 0x24C JUMP JUMPDEST DUP2 EQ PUSH2 0x26C JUMPI PUSH0 PUSH0 REVERT JUMPDEST POP JUMP JUMPDEST PUSH0 DUP2 CALLDATALOAD SWAP1 POP PUSH2 0x27D DUP2 PUSH2 0x259 JUMP JUMPDEST SWAP3 SWAP2 POP POP JUMP JUMPDEST PUSH0 PUSH0 PUSH0 PUSH0 PUSH1 0x80 DUP6 DUP8 SUB SLT ISZERO PUSH2 0x29B JUMPI PUSH2 0x29A PUSH2 0x108 JUMP JUMPDEST JUMPDEST PUSH0 DUP6 ADD CALLDATALOAD PUSH8 0xFFFFFFFFFFFFFFFF DUP2 GT ISZERO PUSH2 0x2B8 JUMPI PUSH2 0x2B7 PUSH2 0x10C JUMP JUMPDEST JUMPDEST PUSH2 0x2C4 DUP8 DUP3 DUP9 ADD PUSH2 0x21F JUMP JUMPDEST SWAP5 POP POP PUSH1 0x20 DUP6 ADD CALLDATALOAD PUSH8 0xFFFFFFFFFFFFFFFF DUP2 GT ISZERO PUSH2 0x2E5 JUMPI PUSH2 0x2E4 PUSH2 0x10C JUMP JUMPDEST JUMPDEST PUSH2 0x2F1 DUP8 DUP3 DUP9 ADD PUSH2 0x21F JUMP JUMPDEST SWAP4 POP POP PUSH1 0x40 PUSH2 0x302 DUP8 DUP3 DUP9 ADD PUSH2 0x26F JUMP JUMPDEST SWAP3 POP POP PUSH1 0x60 DUP6 ADD CALLDATALOAD PUSH8 0xFFFFFFFFFFFFFFFF DUP2 GT ISZERO PUSH2 0x323 JUMPI PUSH2 0x322 PUSH2 0x10C JUMP JUMPDEST JUMPDEST PUSH2 0x32F DUP8 DUP3 DUP9 ADD PUSH2 0x21F JUMP JUMPDEST SWAP2 POP POP SWAP3 SWAP6 SWAP2 SWAP5 POP SWAP3 POP JUMP JUMPDEST PUSH0 DUP2 MLOAD SWAP1 POP SWAP2 SWAP1 POP JUMP JUMPDEST PUSH32 0x4E487B7100000000000000000000000000000000000000000000000000000000 PUSH0 MSTORE PUSH1 0x22 PUSH1 0x4 MSTORE PUSH1 0x24 PUSH0 REVERT JUMPDEST PUSH0 PUSH1 0x2 DUP3 DIV SWAP1 POP PUSH1 0x1 DUP3 AND DUP1 PUSH2 0x389 JUMPI PUSH1 0x7F DUP3 AND SWAP2 POP JUMPDEST PUSH1 0x20 DUP3 LT DUP2 SUB PUSH2 0x39C JUMPI PUSH2 0x39B PUSH2 0x345 JUMP JUMPDEST JUMPDEST POP SWAP2 SWAP1 POP JUMP JUMPDEST PUSH0 DUP2 SWAP1 POP DUP2 PUSH0 MSTORE PUSH1 0x20 PUSH0 KECCAK256 SWAP1 POP SWAP2 SWAP1 POP JUMP JUMPDEST PUSH0 PUSH1 0x20 PUSH1 0x1F DUP4 ADD DIV SWAP1 POP SWAP2 SWAP1 POP JUMP JUMPDEST PUSH0 DUP3 DUP3 SHL SWAP1 POP SWAP3 SWAP2 POP POP JUMP JUMPDEST PUSH0 PUSH1 0x8 DUP4 MUL PUSH2 0x3FE PUSH32 0xFFFFFFFFFFFFFFFFFFFFFFFFFFFFFFFFFFFFFFFFFFFFFFFFFFFFFFFFFFFFFFFF DUP3 PUSH2 0x3C3 JUMP JUMPDEST PUSH2 0x408 DUP7 DUP4 PUSH2 0x3C3 JUMP JUMPDEST SWAP6 POP DUP1 NOT DUP5 AND SWAP4 POP DUP1 DUP7 AND DUP5 OR SWAP3 POP POP POP SWAP4 SWAP3 POP POP POP JUMP JUMPDEST PUSH0 DUP2 SWAP1 POP SWAP2 SWAP1 POP JUMP JUMPDEST PUSH0 DUP2 SWAP1 POP SWAP2 SWAP1 POP JUMP JUMPDEST PUSH0 PUSH2 0x44C PUSH2 0x447 PUSH2 0x442 DUP5 PUSH2 0x420 JUMP JUMPDEST PUSH2 0x429 JUMP JUMPDEST PUSH2 0x420 JUMP JUMPDEST SWAP1 POP SWAP2 SWAP1 POP JUMP JUMPDEST PUSH0 DUP2 SWAP1 POP SWAP2 SWAP1 POP JUMP JUMPDEST PUSH2 0x465 DUP4 PUSH2 0x432 JUMP JUMPDEST PUSH2 0x479 PUSH2 0x471 DUP3 PUSH2 0x453 JUMP JUMPDEST DUP5 DUP5 SLOAD PUSH2 0x3CF JUMP JUMPDEST DUP3 SSTORE POP POP POP POP JUMP JUMPDEST PUSH0 PUSH0 SWAP1 POP SWAP1 JUMP JUMPDEST PUSH2 0x490 PUSH2 0x481 JUMP JUMPDEST PUSH2 0x49B DUP2 DUP5 DUP5 PUSH2 0x45C JUMP JUMPDEST POP POP POP JUMP JUMPDEST JUMPDEST DUP2 DUP2 LT ISZERO PUSH2 0x4BE JUMPI PUSH2 0x4B3 PUSH0 DUP3 PUSH2 0x488 JUMP JUMPDEST PUSH1 0x1 DUP2 ADD SWAP1 POP PUSH2 0x4A1 JUMP JUMPDEST POP POP JUMP JUMPDEST PUSH1 0x1F DUP3 GT ISZERO PUSH2 0x503 JUMPI PUSH2 0x4D4 DUP2 PUSH2 0x3A2 JUMP JUMPDEST PUSH2 0x4DD DUP5 PUSH2 0x3B4 JUMP JUMPDEST DUP2 ADD PUSH1 0x20 DUP6 LT ISZERO PUSH2 0x4EC JUMPI DUP2 SWAP1 POP JUMPDEST PUSH2 0x500 PUSH2 0x4F8 DUP6 PUSH2 0x3B4 JUMP JUMPDEST DUP4 ADD DUP3 PUSH2 0x4A0 JUMP JUMPDEST POP POP JUMPDEST POP POP POP JUMP JUMPDEST PUSH0 DUP3 DUP3 SHR SWAP1 POP SWAP3 SWAP2 POP POP JUMP JUMPDEST PUSH0 PUSH2 0x523 PUSH0 NOT DUP5 PUSH1 0x8 MUL PUSH2 0x508 JUMP JUMPDEST NOT DUP1 DUP4 AND SWAP2 POP POP SWAP3 SWAP2 POP POP JUMP JUMPDEST PUSH0 PUSH2 0x53B DUP4 DUP4 PUSH2 0x514 JUMP JUMPDEST SWAP2 POP DUP3 PUSH1 0x2 MUL DUP3 OR SWAP1 POP SWAP3 SWAP2 POP POP JUMP JUMPDEST PUSH2 0x554 DUP3 PUSH2 0x33B JUMP JUMPDEST PUSH8 0xFFFFFFFFFFFFFFFF DUP2 GT ISZERO PUSH2 0x56D JUMPI PUSH2 0x56C PUSH2 0x128 JUMP JUMPDEST JUMPDEST PUSH2 0x577 DUP3 SLOAD PUSH2 0x372 JUMP JUMPDEST PUSH2 0x582 DUP3 DUP3 DUP6 PUSH2 0x4C2 JUMP JUMPDEST PUSH0 PUSH1 0x20 SWAP1 POP PUSH1 0x1F DUP4 GT PUSH1 0x1 DUP2 EQ PUSH2 0x5B3 JUMPI PUSH0 DUP5 ISZERO PUSH2 0x5A1 JUMPI DUP3 DUP8 ADD MLOAD SWAP1 POP JUMPDEST PUSH2 0x5AB DUP6 DUP3 PUSH2 0x530 JUMP JUMPDEST DUP7 SSTORE POP PUSH2 0x612 JUMP JUMPDEST PUSH1 0x1F NOT DUP5 AND PUSH2 0x5C1 DUP7 PUSH2 0x3A2 JUMP JUMPDEST PUSH0 JUMPDEST DUP3 DUP2 LT ISZERO PUSH2 0x5E8 JUMPI DUP5 DUP10 ADD MLOAD DUP3 SSTORE PUSH1 0x1 DUP3 ADD SWAP2 POP PUSH1 0x20 DUP6 ADD SWAP5 POP PUSH1 0x20 DUP2 ADD SWAP1 POP PUSH2 0x5C3 JUMP JUMPDEST DUP7 DUP4 LT ISZERO PUSH2 0x605 JUMPI DUP5 DUP10 ADD MLOAD PUSH2 0x601 PUSH1 0x1F DUP10 AND DUP3 PUSH2 0x514 JUMP JUMPDEST DUP4 SSTORE POP JUMPDEST PUSH1 0x1 PUSH1 0x2 DUP9 MUL ADD DUP9 SSTORE POP POP POP JUMPDEST POP POP POP POP POP POP JUMP INVALID LOG2 PUSH5 0x6970667358 0x22 SLT KECCAK256 CALLF 0xE83 PUSH18 0x21EB7447BEB0081846B315F78977A9A738BC 0xDD ISZERO DUPN 0xF2 CHAINID PUSH10 0xA189631864736F6C6343 STOP ADDMOD 0x1E STOP CALLER "
				},
				"gasEstimates": {
					"creation": {
						"codeDepositCost": "323200",
						"executionCost": "360",
						"totalCost": "323560"
					},
					"external": {
						"storeData(string,string,uint16,string)": "infinite"
					}
				},
				"methodIdentifiers": {
					"storeData(string,string,uint16,string)": "ea4c864a"
				}
			},
			"storageLayout": {
				"storage": [
					{
						"astId": 14,
						"contract": "contracts/tugas-1.sol:DataStore",
						"label": "person",
						"offset": 0,
						"slot": "0",
						"type": "t_array(t_struct(Person)10_storage)dyn_storage"
					}
				],
				"types": {
					"t_array(t_struct(Person)10_storage)dyn_storage": {
						"base": "t_struct(Person)10_storage",
						"encoding": "dynamic_array",
						"label": "struct DataStore.Person[]",
						"numberOfBytes": "32"
					},
					"t_string_storage": {
						"encoding": "bytes",
						"label": "string",
						"numberOfBytes": "32"
					},
					"t_struct(Person)10_storage": {
						"encoding": "inplace",
						"label": "struct DataStore.Person",
						"members": [
							{
								"astId": 3,
								"contract": "contracts/tugas-1.sol:DataStore",
								"label": "nama",
								"offset": 0,
								"slot": "0",
								"type": "t_string_storage"
							},
							{
								"astId": 5,
								"contract": "contracts/tugas-1.sol:DataStore",
								"label": "alamat",
								"offset": 0,
								"slot": "1",
								"type": "t_string_storage"
							},
							{
								"astId": 7,
								"contract": "contracts/tugas-1.sol:DataStore",
								"label": "tanggal_lahir",
								"offset": 0,
								"slot": "2",
								"type": "t_uint16"
							},
							{
								"astId": 9,
								"contract": "contracts/tugas-1.sol:DataStore",
								"label": "jenis_kelamin",
								"offset": 0,
								"slot": "3",
								"type": "t_string_storage"
							}
						],
						"numberOfBytes": "128"
					},
					"t_uint16": {
						"encoding": "inplace",
						"label": "uint16",
						"numberOfBytes": "2"
					}
				}
			},
			"userdoc": {
				"kind": "user",
				"methods": {},
				"version": 1
			}
		}
	}
}