{
	"data": {
		"bytecode": {
			"linkReferences": {},
			"object": "6080604052348015600e575f5ffd5b506106678061001c5f395ff3fe608060405234801561000f575f5ffd5b5060043610610034575f3560e01c80638269267914610038578063ea4c864a14610042575b5f5ffd5b61004061005e565b005b61005c6004803603810190610057919061029a565b610060565b005b565b5f60405180608001604052808681526020018581526020018461ffff16815260200183815250908060018154018082558091505060019003905f5260205f2090600402015f909190919091505f820151815f0190816100bf9190610562565b5060208201518160010190816100d59190610562565b506040820151816002015f6101000a81548161ffff021916908361ffff160217905550606082015181600301908161010d9190610562565b50505050505050565b5f604051905090565b5f5ffd5b5f5ffd5b5f5ffd5b5f5ffd5b5f601f19601f8301169050919050565b7f4e487b71000000000000000000000000000000000000000000000000000000005f52604160045260245ffd5b6101758261012f565b810181811067ffffffffffffffff821117156101945761019361013f565b5b80604052505050565b5f6101a6610116565b90506101b2828261016c565b919050565b5f67ffffffffffffffff8211156101d1576101d061013f565b5b6101da8261012f565b9050602081019050919050565b828183375f83830152505050565b5f610207610202846101b7565b61019d565b9050828152602081018484840111156102235761022261012b565b5b61022e8482856101e7565b509392505050565b5f82601f83011261024a57610249610127565b5b813561025a8482602086016101f5565b91505092915050565b5f61ffff82169050919050565b61027981610263565b8114610283575f5ffd5b50565b5f8135905061029481610270565b92915050565b5f5f5f5f608085870312156102b2576102b161011f565b5b5f85013567ffffffffffffffff8111156102cf576102ce610123565b5b6102db87828801610236565b945050602085013567ffffffffffffffff8111156102fc576102fb610123565b5b61030887828801610236565b935050604061031987828801610286565b925050606085013567ffffffffffffffff81111561033a57610339610123565b5b61034687828801610236565b91505092959194509250565b5f81519050919050565b7f4e487b71000000000000000000000000000000000000000000000000000000005f52602260045260245ffd5b5f60028204905060018216806103a057607f821691505b6020821081036103b3576103b261035c565b5b50919050565b5f819050815f5260205f209050919050565b5f6020601f8301049050919050565b5f82821b905092915050565b5f600883026104157fffffffffffffffffffffffffffffffffffffffffffffffffffffffffffffffff826103da565b61041f86836103da565b95508019841693508086168417925050509392505050565b5f819050919050565b5f819050919050565b5f61046361045e61045984610437565b610440565b610437565b9050919050565b5f819050919050565b61047c83610449565b6104906104888261046a565b8484546103e6565b825550505050565b5f5f905090565b6104a7610498565b6104b2818484610473565b505050565b5b818110156104d5576104ca5f8261049f565b6001810190506104b8565b5050565b601f82111561051a576104eb816103b9565b6104f4846103cb565b81016020851015610503578190505b61051761050f856103cb565b8301826104b7565b50505b505050565b5f82821c905092915050565b5f61053a5f198460080261051f565b1980831691505092915050565b5f610552838361052b565b9150826002028217905092915050565b61056b82610352565b67ffffffffffffffff8111156105845761058361013f565b5b61058e8254610389565b6105998282856104d9565b5f60209050601f8311600181146105ca575f84156105b8578287015190505b6105c28582610547565b865550610629565b601f1984166105d8866103b9565b5f5b828110156105ff578489015182556001820191506020850194506020810190506105da565b8683101561061c5784890151610618601f89168261052b565b8355505b6001600288020188555050505b50505050505056fea26469706673582212200ff52b42ba48e1a12b95dc8ff66613305289cd05619d586cee81c0bf7ddf21e064736f6c634300081e0033",
			"opcodes": "PUSH1 0x80 PUSH1 0x40 MSTORE CALLVALUE DUP1 ISZERO PUSH1 0xE JUMPI PUSH0 PUSH0 REVERT JUMPDEST POP PUSH2 0x667 DUP1 PUSH2 0x1C PUSH0 CODECOPY PUSH0 RETURN INVALID PUSH1 0x80 PUSH1 0x40 MSTORE CALLVALUE DUP1 ISZERO PUSH2 0xF JUMPI PUSH0 PUSH0 REVERT JUMPDEST POP PUSH1 0x4 CALLDATASIZE LT PUSH2 0x34 JUMPI PUSH0 CALLDATALOAD PUSH1 0xE0 SHR DUP1 PUSH4 0x82692679 EQ PUSH2 0x38 JUMPI DUP1 PUSH4 0xEA4C864A EQ PUSH2 0x42 JUMPI JUMPDEST PUSH0 PUSH0 REVERT JUMPDEST PUSH2 0x40 PUSH2 0x5E JUMP JUMPDEST STOP JUMPDEST PUSH2 0x5C PUSH1 0x4 DUP1 CALLDATASIZE SUB DUP2 ADD SWAP1 PUSH2 0x57 SWAP2 SWAP1 PUSH2 0x29A JUMP JUMPDEST PUSH2 0x60 JUMP JUMPDEST STOP JUMPDEST JUMP JUMPDEST PUSH0 PUSH1 0x40 MLOAD DUP1 PUSH1 0x80 ADD PUSH1 0x40 MSTORE DUP1 DUP7 DUP2 MSTORE PUSH1 0x20 ADD DUP6 DUP2 MSTORE PUSH1 0x20 ADD DUP5 PUSH2 0xFFFF AND DUP2 MSTORE PUSH1 0x20 ADD DUP4 DUP2 MSTORE POP SWAP1 DUP1 PUSH1 0x1 DUP2 SLOAD ADD DUP1 DUP3 SSTORE DUP1 SWAP2 POP POP PUSH1 0x1 SWAP1 SUB SWAP1 PUSH0 MSTORE PUSH1 0x20 PUSH0 KECCAK256 SWAP1 PUSH1 0x4 MUL ADD PUSH0 SWAP1 SWAP2 SWAP1 SWAP2 SWAP1 SWAP2 POP PUSH0 DUP3 ADD MLOAD DUP2 PUSH0 ADD SWAP1 DUP2 PUSH2 0xBF SWAP2 SWAP1 PUSH2 0x562 JUMP JUMPDEST POP PUSH1 0x20 DUP3 ADD MLOAD DUP2 PUSH1 0x1 ADD SWAP1 DUP2 PUSH2 0xD5 SWAP2 SWAP1 PUSH2 0x562 JUMP JUMPDEST POP PUSH1 0x40 DUP3 ADD MLOAD DUP2 PUSH1 0x2 ADD PUSH0 PUSH2 0x100 EXP DUP2 SLOAD DUP2 PUSH2 0xFFFF MUL NOT AND SWAP1 DUP4 PUSH2 0xFFFF AND MUL OR SWAP1 SSTORE POP PUSH1 0x60 DUP3 ADD MLOAD DUP2 PUSH1 0x3 ADD SWAP1 DUP2 PUSH2 0x10D SWAP2 SWAP1 PUSH2 0x562 JUMP JUMPDEST POP POP POP POP POP POP POP JUMP JUMPDEST PUSH0 PUSH1 0x40 MLOAD SWAP1 POP SWAP1 JUMP JUMPDEST PUSH0 PUSH0 REVERT JUMPDEST PUSH0 PUSH0 REVERT JUMPDEST PUSH0 PUSH0 REVERT JUMPDEST PUSH0 PUSH0 REVERT JUMPDEST PUSH0 PUSH1 0x1F NOT PUSH1 0x1F DUP4 ADD AND SWAP1 POP SWAP2 SWAP1 POP JUMP JUMPDEST PUSH32 0x4E487B7100000000000000000000000000000000000000000000000000000000 PUSH0 MSTORE PUSH1 0x41 PUSH1 0x4 MSTORE PUSH1 0x24 PUSH0 REVERT JUMPDEST PUSH2 0x175 DUP3 PUSH2 0x12F JUMP JUMPDEST DUP2 ADD DUP2 DUP2 LT PUSH8 0xFFFFFFFFFFFFFFFF DUP3 GT OR ISZERO PUSH2 0x194 JUMPI PUSH2 0x193 PUSH2 0x13F JUMP JUMPDEST JUMPDEST DUP1 PUSH1 0x40 MSTORE POP POP POP JUMP JUMPDEST PUSH0 PUSH2 0x1A6 PUSH2 0x116 JUMP JUMPDEST SWAP1 POP PUSH2 0x1B2 DUP3 DUP3 PUSH2 0x16C JUMP JUMPDEST SWAP2 SWAP1 POP JUMP JUMPDEST PUSH0 PUSH8 0xFFFFFFFFFFFFFFFF DUP3 GT ISZERO PUSH2 0x1D1 JUMPI PUSH2 0x1D0 PUSH2 0x13F JUMP JUMPDEST JUMPDEST PUSH2 0x1DA DUP3 PUSH2 0x12F JUMP JUMPDEST SWAP1 POP PUSH1 0x20 DUP2 ADD SWAP1 POP SWAP2 SWAP1 POP JUMP JUMPDEST DUP3 DUP2 DUP4 CALLDATACOPY PUSH0 DUP4 DUP4 ADD MSTORE POP POP POP JUMP JUMPDEST PUSH0 PUSH2 0x207 PUSH2 0x202 DUP5 PUSH2 0x1B7 JUMP JUMPDEST PUSH2 0x19D JUMP JUMPDEST SWAP1 POP DUP3 DUP2 MSTORE PUSH1 0x20 DUP2 ADD DUP5 DUP5 DUP5 ADD GT ISZERO PUSH2 0x223 JUMPI PUSH2 0x222 PUSH2 0x12B JUMP JUMPDEST JUMPDEST PUSH2 0x22E DUP5 DUP3 DUP6 PUSH2 0x1E7 JUMP JUMPDEST POP SWAP4 SWAP3 POP POP POP JUMP JUMPDEST PUSH0 DUP3 PUSH1 0x1F DUP4 ADD SLT PUSH2 0x24A JUMPI PUSH2 0x249 PUSH2 0x127 JUMP JUMPDEST JUMPDEST DUP2 CALLDATALOAD PUSH2 0x25A DUP5 DUP3 PUSH1 0x20 DUP7 ADD PUSH2 0x1F5 JUMP JUMPDEST SWAP2 POP POP SWAP3 SWAP2 POP POP JUMP JUMPDEST PUSH0 PUSH2 0xFFFF DUP3 AND SWAP1 POP SWAP2 SWAP1 POP JUMP JUMPDEST PUSH2 0x279 DUP2 PUSH2 0x263 JUMP JUMPDEST DUP2 EQ PUSH2 0x283 JUMPI PUSH0 PUSH0 REVERT JUMPDEST POP JUMP JUMPDEST PUSH0 DUP2 CALLDATALOAD SWAP1 POP PUSH2 0x294 DUP2 PUSH2 0x270 JUMP JUMPDEST SWAP3 SWAP2 POP POP JUMP JUMPDEST PUSH0 PUSH0 PUSH0 PUSH0 PUSH1 0x80 DUP6 DUP8 SUB SLT ISZERO PUSH2 0x2B2 JUMPI PUSH2 0x2B1 PUSH2 0x11F JUMP JUMPDEST JUMPDEST PUSH0 DUP6 ADD CALLDATALOAD PUSH8 0xFFFFFFFFFFFFFFFF DUP2 GT ISZERO PUSH2 0x2CF JUMPI PUSH2 0x2CE PUSH2 0x123 JUMP JUMPDEST JUMPDEST PUSH2 0x2DB DUP8 DUP3 DUP9 ADD PUSH2 0x236 JUMP JUMPDEST SWAP5 POP POP PUSH1 0x20 DUP6 ADD CALLDATALOAD PUSH8 0xFFFFFFFFFFFFFFFF DUP2 GT ISZERO PUSH2 0x2FC JUMPI PUSH2 0x2FB PUSH2 0x123 JUMP JUMPDEST JUMPDEST PUSH2 0x308 DUP8 DUP3 DUP9 ADD PUSH2 0x236 JUMP JUMPDEST SWAP4 POP POP PUSH1 0x40 PUSH2 0x319 DUP8 DUP3 DUP9 ADD PUSH2 0x286 JUMP JUMPDEST SWAP3 POP POP PUSH1 0x60 DUP6 ADD CALLDATALOAD PUSH8 0xFFFFFFFFFFFFFFFF DUP2 GT ISZERO PUSH2 0x33A JUMPI PUSH2 0x339 PUSH2 0x123 JUMP JUMPDEST JUMPDEST PUSH2 0x346 DUP8 DUP3 DUP9 ADD PUSH2 0x236 JUMP JUMPDEST SWAP2 POP POP SWAP3 SWAP6 SWAP2 SWAP5 POP SWAP3 POP JUMP JUMPDEST PUSH0 DUP2 MLOAD SWAP1 POP SWAP2 SWAP1 POP JUMP JUMPDEST PUSH32 0x4E487B7100000000000000000000000000000000000000000000000000000000 PUSH0 MSTORE PUSH1 0x22 PUSH1 0x4 MSTORE PUSH1 0x24 PUSH0 REVERT JUMPDEST PUSH0 PUSH1 0x2 DUP3 DIV SWAP1 POP PUSH1 0x1 DUP3 AND DUP1 PUSH2 0x3A0 JUMPI PUSH1 0x7F DUP3 AND SWAP2 POP JUMPDEST PUSH1 0x20 DUP3 LT DUP2 SUB PUSH2 0x3B3 JUMPI PUSH2 0x3B2 PUSH2 0x35C JUMP JUMPDEST JUMPDEST POP SWAP2 SWAP1 POP JUMP JUMPDEST PUSH0 DUP2 SWAP1 POP DUP2 PUSH0 MSTORE PUSH1 0x20 PUSH0 KECCAK256 SWAP1 POP SWAP2 SWAP1 POP JUMP JUMPDEST PUSH0 PUSH1 0x20 PUSH1 0x1F DUP4 ADD DIV SWAP1 POP SWAP2 SWAP1 POP JUMP JUMPDEST PUSH0 DUP3 DUP3 SHL SWAP1 POP SWAP3 SWAP2 POP POP JUMP JUMPDEST PUSH0 PUSH1 0x8 DUP4 MUL PUSH2 0x415 PUSH32 0xFFFFFFFFFFFFFFFFFFFFFFFFFFFFFFFFFFFFFFFFFFFFFFFFFFFFFFFFFFFFFFFF DUP3 PUSH2 0x3DA JUMP JUMPDEST PUSH2 0x41F DUP7 DUP4 PUSH2 0x3DA JUMP JUMPDEST SWAP6 POP DUP1 NOT DUP5 AND SWAP4 POP DUP1 DUP7 AND DUP5 OR SWAP3 POP POP POP SWAP4 SWAP3 POP POP POP JUMP JUMPDEST PUSH0 DUP2 SWAP1 POP SWAP2 SWAP1 POP JUMP JUMPDEST PUSH0 DUP2 SWAP1 POP SWAP2 SWAP1 POP JUMP JUMPDEST PUSH0 PUSH2 0x463 PUSH2 0x45E PUSH2 0x459 DUP5 PUSH2 0x437 JUMP JUMPDEST PUSH2 0x440 JUMP JUMPDEST PUSH2 0x437 JUMP JUMPDEST SWAP1 POP SWAP2 SWAP1 POP JUMP JUMPDEST PUSH0 DUP2 SWAP1 POP SWAP2 SWAP1 POP JUMP JUMPDEST PUSH2 0x47C DUP4 PUSH2 0x449 JUMP JUMPDEST PUSH2 0x490 PUSH2 0x488 DUP3 PUSH2 0x46A JUMP JUMPDEST DUP5 DUP5 SLOAD PUSH2 0x3E6 JUMP JUMPDEST DUP3 SSTORE POP POP POP POP JUMP JUMPDEST PUSH0 PUSH0 SWAP1 POP SWAP1 JUMP JUMPDEST PUSH2 0x4A7 PUSH2 0x498 JUMP JUMPDEST PUSH2 0x4B2 DUP2 DUP5 DUP5 PUSH2 0x473 JUMP JUMPDEST POP POP POP JUMP JUMPDEST JUMPDEST DUP2 DUP2 LT ISZERO PUSH2 0x4D5 JUMPI PUSH2 0x4CA PUSH0 DUP3 PUSH2 0x49F JUMP JUMPDEST PUSH1 0x1 DUP2 ADD SWAP1 POP PUSH2 0x4B8 JUMP JUMPDEST POP POP JUMP JUMPDEST PUSH1 0x1F DUP3 GT ISZERO PUSH2 0x51A JUMPI PUSH2 0x4EB DUP2 PUSH2 0x3B9 JUMP JUMPDEST PUSH2 0x4F4 DUP5 PUSH2 0x3CB JUMP JUMPDEST DUP2 ADD PUSH1 0x20 DUP6 LT ISZERO PUSH2 0x503 JUMPI DUP2 SWAP1 POP JUMPDEST PUSH2 0x517 PUSH2 0x50F DUP6 PUSH2 0x3CB JUMP JUMPDEST DUP4 ADD DUP3 PUSH2 0x4B7 JUMP JUMPDEST POP POP JUMPDEST POP POP POP JUMP JUMPDEST PUSH0 DUP3 DUP3 SHR SWAP1 POP SWAP3 SWAP2 POP POP JUMP JUMPDEST PUSH0 PUSH2 0x53A PUSH0 NOT DUP5 PUSH1 0x8 MUL PUSH2 0x51F JUMP JUMPDEST NOT DUP1 DUP4 AND SWAP2 POP POP SWAP3 SWAP2 POP POP JUMP JUMPDEST PUSH0 PUSH2 0x552 DUP4 DUP4 PUSH2 0x52B JUMP JUMPDEST SWAP2 POP DUP3 PUSH1 0x2 MUL DUP3 OR SWAP1 POP SWAP3 SWAP2 POP POP JUMP JUMPDEST PUSH2 0x56B DUP3 PUSH2 0x352 JUMP JUMPDEST PUSH8 0xFFFFFFFFFFFFFFFF DUP2 GT ISZERO PUSH2 0x584 JUMPI PUSH2 0x583 PUSH2 0x13F JUMP JUMPDEST JUMPDEST PUSH2 0x58E DUP3 SLOAD PUSH2 0x389 JUMP JUMPDEST PUSH2 0x599 DUP3 DUP3 DUP6 PUSH2 0x4D9 JUMP JUMPDEST PUSH0 PUSH1 0x20 SWAP1 POP PUSH1 0x1F DUP4 GT PUSH1 0x1 DUP2 EQ PUSH2 0x5CA JUMPI PUSH0 DUP5 ISZERO PUSH2 0x5B8 JUMPI DUP3 DUP8 ADD MLOAD SWAP1 POP JUMPDEST PUSH2 0x5C2 DUP6 DUP3 PUSH2 0x547 JUMP JUMPDEST DUP7 SSTORE POP PUSH2 0x629 JUMP JUMPDEST PUSH1 0x1F NOT DUP5 AND PUSH2 0x5D8 DUP7 PUSH2 0x3B9 JUMP JUMPDEST PUSH0 JUMPDEST DUP3 DUP2 LT ISZERO PUSH2 0x5FF JUMPI DUP5 DUP10 ADD MLOAD DUP3 SSTORE PUSH1 0x1 DUP3 ADD SWAP2 POP PUSH1 0x20 DUP6 ADD SWAP5 POP PUSH1 0x20 DUP2 ADD SWAP1 POP PUSH2 0x5DA JUMP JUMPDEST DUP7 DUP4 LT ISZERO PUSH2 0x61C JUMPI DUP5 DUP10 ADD MLOAD PUSH2 0x618 PUSH1 0x1F DUP10 AND DUP3 PUSH2 0x52B JUMP JUMPDEST DUP4 SSTORE POP JUMPDEST PUSH1 0x1 PUSH1 0x2 DUP9 MUL ADD DUP9 SSTORE POP POP POP JUMPDEST POP POP POP POP POP POP JUMP INVALID LOG2 PUSH5 0x6970667358 0x22 SLT KECCAK256 0xF CREATE2 0x2B TIMESTAMP 0xBA BASEFEE RJUMPI 0xA12B SWAP6 0xDC DUP16 0xF6 PUSH7 0x13305289CD0561 SWAP14 PC PUSH13 0xEE81C0BF7DDF21E064736F6C63 NUMBER STOP ADDMOD 0x1E STOP CALLER "
		},
		"gasEstimates": {
			"creation": {
				"codeDepositCost": "327800",
				"executionCost": "366",
				"totalCost": "328166"
			},
			"external": {
				"doSomething()": "121",
				"storeData(string,string,uint16,string)": "infinite"
			}
		},
		"methodIdentifiers": {
			"doSomething()": "82692679",
			"storeData(string,string,uint16,string)": "ea4c864a"
		}
	},
	"abi": [
		{
			"inputs": [],
			"name": "doSomething",
			"outputs": [],
			"stateMutability": "nonpayable",
			"type": "function"
		},
		{
			"inputs": [
				{
					"internalType": "string",
					"name": "nama",
					"type": "string"
				},
				{
					"internalType": "string",
					"name": "alamat",
					"type": "string"
				},
				{
					"internalType": "uint16",
					"name": "tanggal_lahir",
					"type": "uint16"
				},
				{
					"internalType": "string",
					"name": "jenis_kelamin",
					"type": "string"
				}
			],
			"name": "storeData",
			"outputs": [],
			"stateMutability": "nonpayable",
			"type": "function"
		}
	]
}