{
	"data": {
		"bytecode": {
			"linkReferences": {},
			"object": "6080604052600a5f556001805f6101000a81548160ff0219169083151502179055506040518060400160405280600b81526020017f48656c6c6f20576f726c6400000000000000000000000000000000000000000081525060029081610065919061033a565b50600160035f6101000a81548173ffffffffffffffffffffffffffffffffffffffff021916908373ffffffffffffffffffffffffffffffffffffffff1602179055506040518060400160405280600b81526020017f48656c6c6f20576f726c64000000000000000000000000000000000000000000815250600490816100eb9190610461565b503480156100f7575f5ffd5b50610530565b5f81519050919050565b7f4e487b71000000000000000000000000000000000000000000000000000000005f52604160045260245ffd5b7f4e487b71000000000000000000000000000000000000000000000000000000005f52602260045260245ffd5b5f600282049050600182168061017857607f821691505b60208210810361018b5761018a610134565b5b50919050565b5f819050815f5260205f209050919050565b5f6020601f8301049050919050565b5f82821b905092915050565b5f600883026101ed7fffffffffffffffffffffffffffffffffffffffffffffffffffffffffffffffff826101b2565b6101f786836101b2565b95508019841693508086168417925050509392505050565b5f819050919050565b5f819050919050565b5f61023b6102366102318461020f565b610218565b61020f565b9050919050565b5f819050919050565b61025483610221565b61026861026082610242565b8484546101be565b825550505050565b5f5f905090565b61027f610270565b61028a81848461024b565b505050565b5b818110156102ad576102a25f82610277565b600181019050610290565b5050565b601f8211156102f2576102c381610191565b6102cc846101a3565b810160208510156102db578190505b6102ef6102e7856101a3565b83018261028f565b50505b505050565b5f82821c905092915050565b5f6103125f19846008026102f7565b1980831691505092915050565b5f61032a8383610303565b9150826002028217905092915050565b610343826100fd565b67ffffffffffffffff81111561035c5761035b610107565b5b6103668254610161565b6103718282856102b1565b5f60209050601f8311600181146103a2575f8415610390578287015190505b61039a858261031f565b865550610401565b601f1984166103b086610191565b5f5b828110156103d7578489015182556001820191506020850194506020810190506103b2565b868310156103f457848901516103f0601f891682610303565b8355505b6001600288020188555050505b505050505050565b5f819050815f5260205f209050919050565b601f82111561045c5761042d81610409565b610436846101a3565b81016020851015610445578190505b610459610451856101a3565b83018261028f565b50505b505050565b61046a826100fd565b67ffffffffffffffff81111561048357610482610107565b5b61048d8254610161565b61049882828561041b565b5f60209050601f8311600181146104c9575f84156104b7578287015190505b6104c1858261031f565b865550610528565b601f1984166104d786610409565b5f5b828110156104fe578489015182556001820191506020850194506020810190506104d9565b8683101561051b5784890151610517601f891682610303565b8355505b6001600288020188555050505b505050505050565b60da8061053c5f395ff3fe6080604052348015600e575f5ffd5b50600436106026575f3560e01c80636057361d14602a575b5f5ffd5b60406004803603810190603c9190607e565b6042565b005b8060058190555050565b5f5ffd5b5f819050919050565b6060816050565b81146069575f5ffd5b50565b5f813590506078816059565b92915050565b5f60208284031215609057608f604c565b5b5f609b84828501606c565b9150509291505056fea2646970667358221220c4524aef2cd3b701819090db7b6cf2366b77559e3813a8510e7cbb90420136bb64736f6c634300081e0033",
			"opcodes": "PUSH1 0x80 PUSH1 0x40 MSTORE PUSH1 0xA PUSH0 SSTORE PUSH1 0x1 DUP1 PUSH0 PUSH2 0x100 EXP DUP2 SLOAD DUP2 PUSH1 0xFF MUL NOT AND SWAP1 DUP4 ISZERO ISZERO MUL OR SWAP1 SSTORE POP PUSH1 0x40 MLOAD DUP1 PUSH1 0x40 ADD PUSH1 0x40 MSTORE DUP1 PUSH1 0xB DUP2 MSTORE PUSH1 0x20 ADD PUSH32 0x48656C6C6F20576F726C64000000000000000000000000000000000000000000 DUP2 MSTORE POP PUSH1 0x2 SWAP1 DUP2 PUSH2 0x65 SWAP2 SWAP1 PUSH2 0x33A JUMP JUMPDEST POP PUSH1 0x1 PUSH1 0x3 PUSH0 PUSH2 0x100 EXP DUP2 SLOAD DUP2 PUSH20 0xFFFFFFFFFFFFFFFFFFFFFFFFFFFFFFFFFFFFFFFF MUL NOT AND SWAP1 DUP4 PUSH20 0xFFFFFFFFFFFFFFFFFFFFFFFFFFFFFFFFFFFFFFFF AND MUL OR SWAP1 SSTORE POP PUSH1 0x40 MLOAD DUP1 PUSH1 0x40 ADD PUSH1 0x40 MSTORE DUP1 PUSH1 0xB DUP2 MSTORE PUSH1 0x20 ADD PUSH32 0x48656C6C6F20576F726C64000000000000000000000000000000000000000000 DUP2 MSTORE POP PUSH1 0x4 SWAP1 DUP2 PUSH2 0xEB SWAP2 SWAP1 PUSH2 0x461 JUMP JUMPDEST POP CALLVALUE DUP1 ISZERO PUSH2 0xF7 JUMPI PUSH0 PUSH0 REVERT JUMPDEST POP PUSH2 0x530 JUMP JUMPDEST PUSH0 DUP2 MLOAD SWAP1 POP SWAP2 SWAP1 POP JUMP JUMPDEST PUSH32 0x4E487B7100000000000000000000000000000000000000000000000000000000 PUSH0 MSTORE PUSH1 0x41 PUSH1 0x4 MSTORE PUSH1 0x24 PUSH0 REVERT JUMPDEST PUSH32 0x4E487B7100000000000000000000000000000000000000000000000000000000 PUSH0 MSTORE PUSH1 0x22 PUSH1 0x4 MSTORE PUSH1 0x24 PUSH0 REVERT JUMPDEST PUSH0 PUSH1 0x2 DUP3 DIV SWAP1 POP PUSH1 0x1 DUP3 AND DUP1 PUSH2 0x178 JUMPI PUSH1 0x7F DUP3 AND SWAP2 POP JUMPDEST PUSH1 0x20 DUP3 LT DUP2 SUB PUSH2 0x18B JUMPI PUSH2 0x18A PUSH2 0x134 JUMP JUMPDEST JUMPDEST POP SWAP2 SWAP1 POP JUMP JUMPDEST PUSH0 DUP2 SWAP1 POP DUP2 PUSH0 MSTORE PUSH1 0x20 PUSH0 KECCAK256 SWAP1 POP SWAP2 SWAP1 POP JUMP JUMPDEST PUSH0 PUSH1 0x20 PUSH1 0x1F DUP4 ADD DIV SWAP1 POP SWAP2 SWAP1 POP JUMP JUMPDEST PUSH0 DUP3 DUP3 SHL SWAP1 POP SWAP3 SWAP2 POP POP JUMP JUMPDEST PUSH0 PUSH1 0x8 DUP4 MUL PUSH2 0x1ED PUSH32 0xFFFFFFFFFFFFFFFFFFFFFFFFFFFFFFFFFFFFFFFFFFFFFFFFFFFFFFFFFFFFFFFF DUP3 PUSH2 0x1B2 JUMP JUMPDEST PUSH2 0x1F7 DUP7 DUP4 PUSH2 0x1B2 JUMP JUMPDEST SWAP6 POP DUP1 NOT DUP5 AND SWAP4 POP DUP1 DUP7 AND DUP5 OR SWAP3 POP POP POP SWAP4 SWAP3 POP POP POP JUMP JUMPDEST PUSH0 DUP2 SWAP1 POP SWAP2 SWAP1 POP JUMP JUMPDEST PUSH0 DUP2 SWAP1 POP SWAP2 SWAP1 POP JUMP JUMPDEST PUSH0 PUSH2 0x23B PUSH2 0x236 PUSH2 0x231 DUP5 PUSH2 0x20F JUMP JUMPDEST PUSH2 0x218 JUMP JUMPDEST PUSH2 0x20F JUMP JUMPDEST SWAP1 POP SWAP2 SWAP1 POP JUMP JUMPDEST PUSH0 DUP2 SWAP1 POP SWAP2 SWAP1 POP JUMP JUMPDEST PUSH2 0x254 DUP4 PUSH2 0x221 JUMP JUMPDEST PUSH2 0x268 PUSH2 0x260 DUP3 PUSH2 0x242 JUMP JUMPDEST DUP5 DUP5 SLOAD PUSH2 0x1BE JUMP JUMPDEST DUP3 SSTORE POP POP POP POP JUMP JUMPDEST PUSH0 PUSH0 SWAP1 POP SWAP1 JUMP JUMPDEST PUSH2 0x27F PUSH2 0x270 JUMP JUMPDEST PUSH2 0x28A DUP2 DUP5 DUP5 PUSH2 0x24B JUMP JUMPDEST POP POP POP JUMP JUMPDEST JUMPDEST DUP2 DUP2 LT ISZERO PUSH2 0x2AD JUMPI PUSH2 0x2A2 PUSH0 DUP3 PUSH2 0x277 JUMP JUMPDEST PUSH1 0x1 DUP2 ADD SWAP1 POP PUSH2 0x290 JUMP JUMPDEST POP POP JUMP JUMPDEST PUSH1 0x1F DUP3 GT ISZERO PUSH2 0x2F2 JUMPI PUSH2 0x2C3 DUP2 PUSH2 0x191 JUMP JUMPDEST PUSH2 0x2CC DUP5 PUSH2 0x1A3 JUMP JUMPDEST DUP2 ADD PUSH1 0x20 DUP6 LT ISZERO PUSH2 0x2DB JUMPI DUP2 SWAP1 POP JUMPDEST PUSH2 0x2EF PUSH2 0x2E7 DUP6 PUSH2 0x1A3 JUMP JUMPDEST DUP4 ADD DUP3 PUSH2 0x28F JUMP JUMPDEST POP POP JUMPDEST POP POP POP JUMP JUMPDEST PUSH0 DUP3 DUP3 SHR SWAP1 POP SWAP3 SWAP2 POP POP JUMP JUMPDEST PUSH0 PUSH2 0x312 PUSH0 NOT DUP5 PUSH1 0x8 MUL PUSH2 0x2F7 JUMP JUMPDEST NOT DUP1 DUP4 AND SWAP2 POP POP SWAP3 SWAP2 POP POP JUMP JUMPDEST PUSH0 PUSH2 0x32A DUP4 DUP4 PUSH2 0x303 JUMP JUMPDEST SWAP2 POP DUP3 PUSH1 0x2 MUL DUP3 OR SWAP1 POP SWAP3 SWAP2 POP POP JUMP JUMPDEST PUSH2 0x343 DUP3 PUSH2 0xFD JUMP JUMPDEST PUSH8 0xFFFFFFFFFFFFFFFF DUP2 GT ISZERO PUSH2 0x35C JUMPI PUSH2 0x35B PUSH2 0x107 JUMP JUMPDEST JUMPDEST PUSH2 0x366 DUP3 SLOAD PUSH2 0x161 JUMP JUMPDEST PUSH2 0x371 DUP3 DUP3 DUP6 PUSH2 0x2B1 JUMP JUMPDEST PUSH0 PUSH1 0x20 SWAP1 POP PUSH1 0x1F DUP4 GT PUSH1 0x1 DUP2 EQ PUSH2 0x3A2 JUMPI PUSH0 DUP5 ISZERO PUSH2 0x390 JUMPI DUP3 DUP8 ADD MLOAD SWAP1 POP JUMPDEST PUSH2 0x39A DUP6 DUP3 PUSH2 0x31F JUMP JUMPDEST DUP7 SSTORE POP PUSH2 0x401 JUMP JUMPDEST PUSH1 0x1F NOT DUP5 AND PUSH2 0x3B0 DUP7 PUSH2 0x191 JUMP JUMPDEST PUSH0 JUMPDEST DUP3 DUP2 LT ISZERO PUSH2 0x3D7 JUMPI DUP5 DUP10 ADD MLOAD DUP3 SSTORE PUSH1 0x1 DUP3 ADD SWAP2 POP PUSH1 0x20 DUP6 ADD SWAP5 POP PUSH1 0x20 DUP2 ADD SWAP1 POP PUSH2 0x3B2 JUMP JUMPDEST DUP7 DUP4 LT ISZERO PUSH2 0x3F4 JUMPI DUP5 DUP10 ADD MLOAD PUSH2 0x3F0 PUSH1 0x1F DUP10 AND DUP3 PUSH2 0x303 JUMP JUMPDEST DUP4 SSTORE POP JUMPDEST PUSH1 0x1 PUSH1 0x2 DUP9 MUL ADD DUP9 SSTORE POP POP POP JUMPDEST POP POP POP POP POP POP JUMP JUMPDEST PUSH0 DUP2 SWAP1 POP DUP2 PUSH0 MSTORE PUSH1 0x20 PUSH0 KECCAK256 SWAP1 POP SWAP2 SWAP1 POP JUMP JUMPDEST PUSH1 0x1F DUP3 GT ISZERO PUSH2 0x45C JUMPI PUSH2 0x42D DUP2 PUSH2 0x409 JUMP JUMPDEST PUSH2 0x436 DUP5 PUSH2 0x1A3 JUMP JUMPDEST DUP2 ADD PUSH1 0x20 DUP6 LT ISZERO PUSH2 0x445 JUMPI DUP2 SWAP1 POP JUMPDEST PUSH2 0x459 PUSH2 0x451 DUP6 PUSH2 0x1A3 JUMP JUMPDEST DUP4 ADD DUP3 PUSH2 0x28F JUMP JUMPDEST POP POP JUMPDEST POP POP POP JUMP JUMPDEST PUSH2 0x46A DUP3 PUSH2 0xFD JUMP JUMPDEST PUSH8 0xFFFFFFFFFFFFFFFF DUP2 GT ISZERO PUSH2 0x483 JUMPI PUSH2 0x482 PUSH2 0x107 JUMP JUMPDEST JUMPDEST PUSH2 0x48D DUP3 SLOAD PUSH2 0x161 JUMP JUMPDEST PUSH2 0x498 DUP3 DUP3 DUP6 PUSH2 0x41B JUMP JUMPDEST PUSH0 PUSH1 0x20 SWAP1 POP PUSH1 0x1F DUP4 GT PUSH1 0x1 DUP2 EQ PUSH2 0x4C9 JUMPI PUSH0 DUP5 ISZERO PUSH2 0x4B7 JUMPI DUP3 DUP8 ADD MLOAD SWAP1 POP JUMPDEST PUSH2 0x4C1 DUP6 DUP3 PUSH2 0x31F JUMP JUMPDEST DUP7 SSTORE POP PUSH2 0x528 JUMP JUMPDEST PUSH1 0x1F NOT DUP5 AND PUSH2 0x4D7 DUP7 PUSH2 0x409 JUMP JUMPDEST PUSH0 JUMPDEST DUP3 DUP2 LT ISZERO PUSH2 0x4FE JUMPI DUP5 DUP10 ADD MLOAD DUP3 SSTORE PUSH1 0x1 DUP3 ADD SWAP2 POP PUSH1 0x20 DUP6 ADD SWAP5 POP PUSH1 0x20 DUP2 ADD SWAP1 POP PUSH2 0x4D9 JUMP JUMPDEST DUP7 DUP4 LT ISZERO PUSH2 0x51B JUMPI DUP5 DUP10 ADD MLOAD PUSH2 0x517 PUSH1 0x1F DUP10 AND DUP3 PUSH2 0x303 JUMP JUMPDEST DUP4 SSTORE POP JUMPDEST PUSH1 0x1 PUSH1 0x2 DUP9 MUL ADD DUP9 SSTORE POP POP POP JUMPDEST POP POP POP POP POP POP JUMP JUMPDEST PUSH1 0xDA DUP1 PUSH2 0x53C PUSH0 CODECOPY PUSH0 RETURN INVALID PUSH1 0x80 PUSH1 0x40 MSTORE CALLVALUE DUP1 ISZERO PUSH1 0xE JUMPI PUSH0 PUSH0 REVERT JUMPDEST POP PUSH1 0x4 CALLDATASIZE LT PUSH1 0x26 JUMPI PUSH0 CALLDATALOAD PUSH1 0xE0 SHR DUP1 PUSH4 0x6057361D EQ PUSH1 0x2A JUMPI JUMPDEST PUSH0 PUSH0 REVERT JUMPDEST PUSH1 0x40 PUSH1 0x4 DUP1 CALLDATASIZE SUB DUP2 ADD SWAP1 PUSH1 0x3C SWAP2 SWAP1 PUSH1 0x7E JUMP JUMPDEST PUSH1 0x42 JUMP JUMPDEST STOP JUMPDEST DUP1 PUSH1 0x5 DUP2 SWAP1 SSTORE POP POP JUMP JUMPDEST PUSH0 PUSH0 REVERT JUMPDEST PUSH0 DUP2 SWAP1 POP SWAP2 SWAP1 POP JUMP JUMPDEST PUSH1 0x60 DUP2 PUSH1 0x50 JUMP JUMPDEST DUP2 EQ PUSH1 0x69 JUMPI PUSH0 PUSH0 REVERT JUMPDEST POP JUMP JUMPDEST PUSH0 DUP2 CALLDATALOAD SWAP1 POP PUSH1 0x78 DUP2 PUSH1 0x59 JUMP JUMPDEST SWAP3 SWAP2 POP POP JUMP JUMPDEST PUSH0 PUSH1 0x20 DUP3 DUP5 SUB SLT ISZERO PUSH1 0x90 JUMPI PUSH1 0x8F PUSH1 0x4C JUMP JUMPDEST JUMPDEST PUSH0 PUSH1 0x9B DUP5 DUP3 DUP6 ADD PUSH1 0x6C JUMP JUMPDEST SWAP2 POP POP SWAP3 SWAP2 POP POP JUMP INVALID LOG2 PUSH5 0x6970667358 0x22 SLT KECCAK256 0xC4 MSTORE BLOBBASEFEE 0xEF 0x2C 0xD3 0xB7 ADD DUP2 SWAP1 SWAP1 0xDB PUSH28 0x6CF2366B77559E3813A8510E7CBB90420136BB64736F6C634300081E STOP CALLER "
		},
		"gasEstimates": {
			"creation": {
				"codeDepositCost": "43600",
				"executionCost": "infinite",
				"totalCost": "infinite"
			},
			"external": {
				"store(uint256)": "22493"
			}
		},
		"methodIdentifiers": {
			"store(uint256)": "6057361d"
		}
	},
	"abi": [
		{
			"inputs": [
				{
					"internalType": "uint256",
					"name": "_favoriteNumber",
					"type": "uint256"
				}
			],
			"name": "store",
			"outputs": [],
			"stateMutability": "nonpayable",
			"type": "function"
		}
	]
}